:020000040001F9
:10B000000831002035B101004FB1010051B10100FC
:10B010000000000000000000000000000000000030
:10B0200000000000000000000000000053B101001B
:10B03000000000000000000055B1010057B1010000
:10B0400059B1010059B1010079B5010059B10100B0
:10B0500059B1010000000000C9B2010049B201006D
:10B0600049B5010061B5010059B1010059B10100B4
:10B0700059B1010059B1010059B1010059B10100A4
:10B0800059B1010061B4010059B1010059B1010089
:10B0900081B4010059B1010089B4010059B1010026
:10B0A00059B1010059B1010000000000000000008A
:10B0B0000000000000000000000000000000000090
:10B0C0000348854600F0AEF800480047ADCB0100CC
:10B0D00008310020401E00BF00BF00BF00BF00BFFE
:10B0E00000BF00BF00BF00BF00BF00BF00BFF1D165
:10B0F00070470000401E00BF00BF00BF00BF00BF80
:10B1000000BF00BF00BF00BF00BF00BF00BFF1D144
:10B1100070470000401E00BF00BF00BF00BF00BF5F
:10B1200000BF00BF00BF00BF00BF00BF00BFF1D124
:10B13000704700000321094802680A43026008487A
:10B1400002680A4302600748804707480047FEE755
:10B15000FEE7FEE7FEE7FEE7FEE70000240500400D
:10B1600054050040A9B40100C1B0010030B50B4640
:10B17000014600202022012409E00D46D5409D42D1
:10B1800005D31D469540491B254695404019154657
:10B19000521E002DF1DC30BD03460B439B0703D04C
:10B1A00009E008C9121F08C0042AFAD203E00B788C
:10B1B0000370401C491C521EF9D27047D2B201E004
:10B1C0000270401C491EFBD270470022F6E710B502
:10B1D00013460A4604461946FFF7F0FF204610BD05
:10B1E00010B5044605E00B780370401C002B00D01E
:10B1F000491C521EF7D2204610BD421C0178401C4B
:10B200000029FBD1801A704730B504460020034660
:10B2100000E05B1C934203D2E05CCD5C401BF8D0A5
:10B2200030BD0000064C0125064E05E0E36807CC62
:10B230002B430C3C98471034B442F7D3FFF744FF3C
:10B2400054DD010074DD010003490020086003485B
:10B2500080680349C8617047007100400075004074
:10B260008020002010B50120FFF734FF054C00209E
:10B27000E0610549012008605020FFF72BFFE069DD
:10B2800010BD000080200020007000403FB50C4839
:10B29000002201694903C90F0091006909490003AF
:10B2A000C00F019010466B46012485005D59012DA9
:10B2B00004D00C54401C0228F7DB3FBD0A54F9E7C8
:10B2C00000050050A0200020F0B50025FF248BB021
:10B2D000013401262F460195204601F071FE002819
:10B2E00008D047484068304204D046480021201822
:10B2F00035430160241D76007F1CA4B2042FEBD3DC
:10B30000FF207D3001F05CFE002807D03E48002180
:10B310000160400705433D48006901903C4C280707
:10B3200012D0012700262F420AD03A48B200111845
:10B3300008690969C004C00E8903A258890F9047A3
:10B340007F00761C042EEED3002D57DA00200590E6
:10B35000401E4DE0A119403108788506AD0E42B27D
:10B36000521C39D00121A940089A0091114233D0D2
:10B3700080090390284601F017F8800020580490B7
:10B38000002802D10398032826D1039800990328A6
:10B3900002D10598084305901F4AA800801800684C
:10B3A000019A8003800F114202D0022802D013E0DC
:10B3B000032811D10399032907D102281CD00221A7
:10B3C000284601F0DDFD7F1CFFB20498002803D061
:10B3D000049A284603999047761C042EBAD3002F6E
:10B3E0000CD00A4800690199884207D0019005985D
:10B3F00000273E460890ADE70321E1E70BB0F0BD22
:10B4000000630040006000407C6100400005005087
:10B410001C27002000650040000700508307FF2222
:10B42000DB0E9A408907090E994000280BDA0007C5
:10B43000000F0838830808489B001818C369934315
:10B440000B43C3617047830804489B001B181868AE
:10B45000904308431860704700ED00E000E400E00E
:10B4600010B506490020086048608860C86003493C
:10B4700040390860486002F0C7F910BD4011014032
:10B4800010B502F047F910BD10B506484068002815
:10B4900005D08047002801D000F0F6F910BD01F07A
:10B4A00005FA10BD2C21002010B501F069FA002822
:10B4B00005D01F491D484860C8131E4988611E48B1
:10B4C000018CC9B201290BD1828C120708D1028DDF
:10B4D0001206120F042A03D1828D1206120F0AD00F
:10B4E000012921D1818C09071ED1018D0906090F7F
:10B4F0000A2904D007E0114A01219160F5E7828D05
:10B500001206120F05D00D290ED1808D0006000FF6
:10B510000AD10B480168012904D00A490160016879
:10B520000129FCD1C021416110BD0000DFFF07C02F
:10B5300000050040006C0040C00F00F00006004015
:10B5400000EC06407593000010B504220249034840
:10B5500001F0E8F910BD00005828002000800040EC
:10B5600010B504220249034801F0DCF910BD0000C7
:10B57000642800200090004010B502F0FBF910BDD7
:10B5800030B47446641E2578641CAB4200D21D465C
:10B59000635D5B00E31830BC184702E008C8121F67
:10B5A00008C1002AFAD170477047002001E001C1AC
:10B5B000121F002AFBD17047F7B584B0002516880A
:10B5C00007461580406B1446002813D00378059871
:10B5D000032E51D30221017021881122491C89B206
:10B5E000218042542188491C89B2218043542088FB
:10B5F000401C2080386B00281DD005462088059906
:10B6000002461232B24237D811220A542088102240
:10B61000401C80B220800A542088401C20800F20CB
:10B620002A5C2388401ECA54228840B2521C2280C1
:10B630000028F5DA0025384620300290807B00286B
:10B6400006D033462246059901F0BEF9050014D113
:10B650000298407B002806D032462146059800F02B
:10B6600059FC050009D1B878002823D005988646F2
:10B670002088001DB04202D90C2007B0F0BD6846FA
:10B6800079DF0028F9D121880320724650542088A0
:10B690001921401C80B22080115420887146401C22
:10B6A00080B2208041186846008802F0F7F92188AE
:10B6B00040182080F878002817D0218803230A46F4
:10B6C000FB56C91C0598B142D6D802218154218865
:10B6D0000122491C89B2218042542188491C89B227
:10B6E000218043542088401C20807868002817D08F
:10B6F00021880023C3560A46C91C0598B142BBD80D
:10B700000221815421880A22491C89B22180425495
:10B710002188491C89B2218043542088401C208004
:10B72000388900280AD00094384601960622022162
:10B730000830059B02F027FA05009ED1388A0028C0
:10B740000AD0009438460196072203211030059B49
:10B7500002F019FA050090D1388B00280AD0009425
:10B7600038460196152214211830059B02F00BFA79
:10B77000050082D1386A002806D033462246059952
:10B7800000F0A4FF0500D8D1786A002806D033461F
:10B790002246059901F010FA0500CED10298007BEF
:10B7A000002807D0334622463846059901F0ECFEC2
:10B7B0000500C2D13878002807D0334622463846E3
:10B7C000059901F087FA0500B7D1284655E710B56D
:10B7D00001220221002000F0E9FC002801D0072806
:10B7E00012D107220221012000F0E0FC002801D044
:10B7F000072809D100210A22084600F0D7FC0028BA
:10B8000001D0072800D1002010BD000030B5A7B03E
:10B81000382101A8FFF7D9FC0221684601710024F4
:10B8200084710621C17138210FA8FFF7CEFC0125D4
:10B8300010A885810B48149024211DA8FFF7C5FC92
:10B8400020A80570402021902294074B1DAA0FA923
:10B85000009401A800F01EF9002801D000F014F8AF
:10B8600027B030BDAE20002025D20100BFF34F8F9E
:10B8700004490348C860BFF34F8F00BFFDE70000D5
:10B880000400FA0500ED00E00EB5002102900091E1
:10B890006A4601910148FFF7E9FF0EBD0140000033
:10B8A000094B9B68002B07D0002A07D0002805D041
:10B8B0000068037C002B03D00820704707207047E6
:10B8C00041744261002070470C210020FFB59007B1
:10B8D000002581B014460E46002832D11B4F002CA3
:10B8E00031D001F04BFD0498786103203870334665
:10B8F0001821224600204B43BC601834C10089182F
:10B900000D704D708E704C601C19401C0328F5DBC7
:10B91000FD607D7001240E48BD7024050460032184
:10B920001420FFF77BFD0B4804600B4C0198A060CE
:10B9300003211120FFF772FD60683861002005B017
:10B94000F0BD0720FBE7BD60FBE700000C210020F5
:10B9500080E200E000E100E000150140FEB50D4688
:10B960001B4917468968044600292AD0002C28D094
:10B97000052D01D20720FEBD6069002821D0607C22
:10B98000012820D0002602F0C1F8C0001049019023
:10B9900089684018694602F0E3F8002815D00121B3
:10B9A00001700C49446049680830E2C008490198B8
:10B9B0008968411868460078487001F0EDFE002063
:10B9C000FEBD0820FEBD2E46DDE70420FEBD0000C2
:10B9D0000C21002000150140F8B5134D0446A9685C
:10B9E00000291CD0002C1AD06069002817D000262E
:10B9F000267402F08BF8C700A8686946381802F070
:10BA0000AFF800280DD0022101704460A8683918F1
:10BA100068460078487001F0BFFE3046F8BD082047
:10BA2000F8BD0420F8BD00000C210020F0B50C4644
:10BA300093B01F216A4611800726002791800028B5
:10BA400009D0C17849070DD502A9FFF7B5FD002837
:10BA500009D102AD01E000251780002C0ED0E0785E
:10BA6000002802D0304613B0F0BD01AA0AA9204632
:10BA7000FFF7A2FD0028F6D10AAA02E068460022DC
:10BA8000878068468088C3B268460088C1B228466D
:10BA900072DFE8E770B50D4604991646040042D0FF
:10BAA000002E40D0424800224271C360016124222E
:10BAB00031464048FFF770FB00F0BCF83D49343197
:10BAC0000846103801602031816038215C38FFF76A
:10BAD0007CFB3848217838380170A1788170E17892
:10BAE000C170617841706269216942610161E268F7
:10BAF000A168C26081600146E369A269CB618A6185
:10BB0000616A002919D00146AC310246B83241625F
:10BB10008A60636A1B880B80616A436A898899809E
:10BB20000021436A06E00E2070BD666AB668765C46
:10BB30005654491C9E888E42F7D8A16A00291CD011
:10BB40001C4AAC3211460C398A608162A36A9B8818
:10BB50008B80A16A836A098819800021836A04E0C6
:10BB6000A66AB668765C5654491C9E888E42F7D801
:10BB70002C210A5D0F4918390A73216A002909D05E
:10BB80000B4914310162226A52884A80216A026A92
:10BB9000098811806168002904D00549891D416028
:10BBA00061684160034829463838FFF73FFF70BDA0
:10BBB000B42000201426002010B502881C4C102A46
:10BBC00017D00021112A1AD01B2A11D1007A00287F
:10BBD0000ED1607901281ED0022822D0032822D05D
:10BBE000042805D12171E2680846002A00D0904758
:10BBF00010BD817D0129FBD18088208110BD61703D
:10BC0000808821898842F9D1012005E02169002935
:10BC1000F4D0884710BD022000F014F80028F5D1B8
:10BC200010BD0320F8E7032020710420F4E7000092
:10BC3000B420002010B507210148FFF7C6FA10BD57
:10BC4000CC200020F0B5784C87B06071002606A8A3
:10BC5000069601F04FFB0127082802D0002808D1E2
:10BC600004E006A800F0F2FD002804D106980028A0
:10BC700001D02770D4E0FFF7DDFF6C4D6878002815
:10BC800002D06079012807D0A87800280CD060790C
:10BC9000012801D0022824D1E168002903D0E770EF
:10BCA0000820884700E0E6706079012808D16878AC
:10BCB000002809D05C48193001F010FB002803D09F
:10BCC0006079022802D00CE002206071A878002878
:10BCD00005D05548193001F001FB002801D103209F
:10BCE0006071287B002804D16079032801D10420E9
:10BCF0006071287E002804D16079042801D1667122
:10BD00002671E16800290AD06079032801D004284F
:10BD100005D12878002802D06078002817D0A670B6
:10BD200018216846FFF751FA6846067001960672B8
:10BD30000396607901280ED0022815D03B4E243698
:10BD400037465C3F03281BD004285DD13AE0A7703A
:10BD500007208847E4E734481830019068460770A8
:10BD600046820682277152E02F48183001906846BB
:10BD7000077029894182A98801820220207146E04A
:10BD8000A88A69464882288A08822848243001F017
:10BD9000ACFF002805D02878002802D06078002861
:10BDA00001D003202FE00220694608720420039688
:10BDB000F8701E4800213838FFF738FE002830D1CF
:10BDC000052020E0A88B69460882288C4882174805
:10BDD000243001F08AFF002805D02878002802D0FE
:10BDE0006078002801D004200DE002206946087226
:10BDF00004200396F8700D4800213838FFF716FE2E
:10BE000000280ED1062020716079002803D06846F2
:10BE100073DF002805D1E168002901D02079884727
:10BE2000002007B0F0BD0000B42000201426002040
:10BE300070B5054601461C220E48FFF7ADF90E4CC1
:10BE4000002626702968002906D00822201DFFF749
:10BE5000A3F9201D7ADF02E00748001D7BDF0028E0
:10BE600007D1401E60806670044A00210448FFF735
:10BE700017FD70BD00270020D4200020A9DA0100A2
:10BE800028DD0100F8B5214C028800271E4DE68907
:10BE9000102A15D01E49112A21D0122A2DD0502A3D
:10BEA0001CD1C288801DB24218D14289022A15D104
:10BEB000427B037B10021843C007C00F0CD112E075
:10BEC0008188698001461048082218310C30FFF73C
:10BED00063F96F70002E01D100F064FCF8BD002002
:10BEE000C04368806F700868FFF776FD0028F5D0C2
:10BEF000A1690029F2D08847F8BD082281180248BC
:10BF00000C30FFF749F9E7E7D42000200027002094
:10BF100028DD01007CB5054608880C4609309042B2
:10BF200001D90C207CBD684671DF0028FAD1218838
:10BF30000820685420881B21401C80B2208029548E
:10BF4000208800A9401C80B22080401906220131BF
:10BF5000FFF722F920886946801D80B22080097889
:10BF6000002900D0012129542088401C2080002075
:10BF70007CBD000010B50446FFF784FF214606484B
:10BF800000F040F8204601F05DF92046FFF714FE6E
:10BF9000204600F0C5F810BDC025002030B5184B74
:10BFA0000D4604000FCB85B003936B4607C324D026
:10BFB000002D22D00020C043A0822868A06100206C
:10BFC000A0752146684663DF002814D121786846B1
:10BFD000817401210182A21C04A90120A0DF002894
:10BFE00009D12946204601F007FA002803D1294645
:10BFF000204601F06FFC05B030BD0E20FBE70000CD
:10C000002CDD010000281ED000291CD00A88102A2F
:10C0100014D0112A14D0502A15D1CA88038A891D38
:10C020009A4202D14B89022B0ED083889A420AD1C0
:10C030008369002B07D04A890C311847898801E0B1
:10C040000021C943818270474A7B0B7B110219434F
:10C05000C907C90F00D001218175704707B584B0A9
:10C0600000280DD0828A114B9A420BD0827D002A83
:10C0700008D06A46128B142A06D9072007B000BDE3
:10C080000E20FBE70820F9E70022009201920292BD
:10C09000039282896B461A80039106A902910121BD
:10C0A0009970808A6946A6DFE8E70000FFFF00007C
:10C0B00000B5174887B0006805900023482215494D
:10C0C00005A801F0F9FA002801D0FFF7DDFB6A4668
:10C0D0000121002001F0D8FA002801D0FFF7D4FB9D
:10C0E0000D4801F003FA002801D0FFF7CDFB6846A8
:10C0F00001F0C0FA002801D0FFF7C6FB074801F0A5
:10C10000AFFA002801D0FFF7BFFB07B000BD000069
:10C1100024DD0100B8210020E81F002075BF0100C8
:10C1200010B51C4C0188606810290DD011290AD166
:10C13000401E606007D1FFF74AFB002803D021684A
:10C14000002900D0884710BD00281ED100210122FF
:10C15000084600F02BF8002801D0072811D107224B
:10C160000221012000F022F8002801D0072808D180
:10C1700004220221002000F019F8002805D0072829
:10C1800003D02168002900D088476068401C6060A7
:10C1900010BD00005821002010B5032000F002F966
:10C1A000002801D0062800D1002010BD07207047CC
:10C1B00010B5054A0146127A0020D20702D008467F
:10C1C00000F004F810BD000048210020F0B5724DC9
:10C1D00085B06B6800935A000292EB6807229205C3
:10C1E0009A430393009B06469C001B1900200121E3
:10C1F000019349050746694C3300FFF7C1F9180D53
:10C200001616223A4C5267736A737CC989898989E8
:10C2100089B3B9BCC3C9C9140F21039A4905914315
:10C22000A160E7602F7005B0F0BD60680F22520575
:10C230005040800232D5A160E7602E700299002242
:10C240003FE0A260E76060680F2252055040800224
:10C2500004D5A160E7601920400102E0E160A76019
:10C26000C8202E706421FEF781FF0099414300220F
:10C2700027E0A260E76060680F225205504080020C
:10C2800004D5A160E7607D204001EAE7E160A76096
:10C29000FF209130E5E7A260E760C6E7E160A760B4
:10C2A000CBE7A260E76060680F2252055040800231
:10C2B00002D5A160E76001E0E160A7602E700099FF
:10C2C000002237480068FFF749FBACE7A260E7604F
:10C2D0001BE06068012189050A468243A26008408C
:10C2E000E06010E06068012189050A468243A2608F
:10C2F0000840E060E3E761680120800502468A4368
:10C30000A2600140E160019999E7E160A7602DE03A
:10C3100023484068FFF760FB11218A1B01D00028E9
:10C3200007D00F22E96852051140A160E760EF6075
:10C3300079E70121C905E960012A0CD91046C82115
:10C3400048436421FEF712FF696800224143144804
:10C350004068FFF703FB0F22E96852051140E160D6
:10C36000A76060E70F214905A160E7602E705AE7DA
:10C3700007229205AAE70D214905A160E760012186
:10C380008905C2E70321C905A160E7608910BCE700
:10C390000F214905B9E700004821002000050050A1
:10C3A0004CDD01000620704702490918202008567C
:10C3B000704700001C270020F8B52348C1680029F9
:10C3C0003ED00E6821494C680769C078E11B0D0218
:10C3D0002D0AED1C002814D101201D4A00045060D4
:10C3E0001B4A403A50601B49400008601A490860E7
:10C3F0001A49012008602F20FEF78CFE1249012007
:10C40000C870B54200D23546E81900020F4B000A49
:10C41000403318600D4A5168001B091B0902090AC4
:10C420000002000AC91C814209D9506818602F20F7
:10C43000FEF770FE01200749400480390860F8BD0E
:10C4400000F09CFFF8BD00000C2100200015014009
:10C450004013014080E200E000E100E000100140F4
:10C4600010B50446152000F09BFD162000F098FD45
:10C47000172000F095FD182000F092FDE00702D093
:10C48000152000F095FDA00702D5162000F090FDC4
:10C49000600702D5172000F08BFD200702D5182079
:10C4A00000F086FD10BD000010B500F06BF800F044
:10C4B0009FF800F0B3F800F0EFF800F0E1F800F0BA
:10C4C000D1F800F0A3F8FEF7E1FE03490020087060
:10C4D00000F066F810BD0000A02000207CB50546E5
:10C4E000022803D0032D01D0072D3DD12049C86873
:10C4F0000969009001916846007881076846407894
:10C50000890F4007C00E0843019989074C0E044368
:10C5100001988003800F04D003210198090408408A
:10C520000443002000F026FC12494868FF22120252
:10C53000104020434860022D04D0032D04D0072D65
:10C5400005D112E0042000E0082000F013FC0A49A5
:10C5500001204860094801680902090A02071143DD
:10C5600001600749802008607CBD8020EDE7000065
:10C5700010DD0100007500400073004004E400E09D
:10C5800000E100E010B50023044A05211846FFF73A
:10C590009DF9002801D0FFF777F910BD1422002083
:10C5A00010B5FFF785FD1A210B48FEF70EFE12228B
:10C5B0000AA10948FEF714FE00F054F901F02CF826
:10C5C000FFF724F900F0CAF80320FFF73BFB00282F
:10C5D00001D0FFF759F910BDA42500204D4445585E
:10C5E0002D56656E75732D312E312E31630000008E
:10C5F00010B50021122000F0AFFC0021132000F044
:10C60000ABFC0021142000F0A7FC10BD10B51020D9
:10C6100000F0ABFC112000F0A8FC10BD08B50E4ADC
:10C6200000210E4800F030FC002801D0FFF72CF963
:10C630000A4805210068090240180069084A0223D7
:10C64000C240012001460090044800F005FC034868
:10C6500000F0F4FB08BD0000E9D7010014DD010083
:10C66000006A180010B5152000F07FFC162000F0BD
:10C670007CFC172000F079FC182000F076FC10BD3F
:10C6800010B50720FFF72AFF0220FFF727FF03203E
:10C69000FFF724FF10BD000070B5002401252846D7
:10C6A000A040C001000F02D0204600F05EFC641CD8
:10C6B000202CF4D30F210448490581600021C1607A
:10C6C000152000F052FC70BD00050050F8B506467C
:10C6D000108814468446801D0D46984201D90C20CE
:10C6E000F8BD32880720062AFAD31927FF01184B14
:10C6F000BA4201D99A42F3D171880629F0D3B942DE
:10C7000001D99942ECD19A4203D0994201D08A4290
:10C71000E6D805216046295420881221401C80B2A9
:10C72000208029542088401C80B220804119308804
:10C7300001F0B4F92188401880B220804119708836
:10C7400001F0ACF92188401820800020F8BD0000DD
:10C75000FFFF000010B5FFF797F810BD00B587B0D8
:10C760001C216846FEF731FD0521C90301910F2107
:10C770000904002002910090032269460A73C881CF
:10C78000087406480590064806906846FFF750FB77
:10C79000002801D0FFF778F807B000BDBDD2010036
:10C7A00055C70100F8B5164800F0DCF8144D002616
:10C7B0000C3D144C002807D0616900291CD00120D1
:10C7C0006A461070684616E02878002805D061692E
:10C7D000002911D0684606700DE0687800280DD059
:10C7E000A168094800220068FFF7B8F8002803D0C4
:10C7F000A169002900D088472E70F8BD6168F0E774
:10C80000E02000200027002028DD010010B50E499F
:10C8100000234A788C78A24212D0521CD2B24A70BD
:10C82000022A00D14B704A78074B920018339A586D
:10C830000260086910180002000A0861012010BD9A
:10C840000360002010BD00000C210020002804D04F
:10C850000349496D016000207047032070470000C4
:10C86000702800200EB56946112008720E48FEF7A8
:10C87000C4FC82B20C4902A87CDF002801D0FFF77B
:10C8800003F8002000901022694601900A803C22A3
:10C890004A808880FF209130C88068467ADF00286F
:10C8A00001D0FEF7F1FF0EBDA4250020F8B51C4C09
:10C8B0002078002833D02069002807D00026E068BF
:10C8C000002805D00025002E04D011E00126F6E74F
:10C8D0000125F8E7684652DF052804D0002804D077
:10C8E000FEF7D2FF04E0012602E0216900988847A4
:10C8F000002D10D1608869460880A06861DF052896
:10C9000004D0002804D0FEF7BFFF04E0012502E0B8
:10C91000E168A0688847002EDCD0002DD3D0F8BD98
:10C920002C210020F7B50025164604462F4616E0B8
:10C93000A80001210904A940FF3041302258002AF3
:10C940000BD003221202A21852680A4205D02750C7
:10C95000019A01991268496890476D1CEDB2B54281
:10C96000E6D3FEBD418805480288914204D3408841
:10C97000814201D80120704700207047D820002054
:10C980001048018CC9B2012917D1818C090714D133
:10C99000018D09060A0F03D1828D1206120F0ED0E7
:10C9A000090F012903D1828D1206120F07D0032926
:10C9B00003D1808D0006000F01D0002070470120B8
:10C9C00070470000C00F00F030B51588EC1C9C4289
:10C9D00001D90C2030BD02244C5513881C255B1C4A
:10C9E0009BB21380CD5413885B1C9BB2138001282B
:10C9F00007D0022807D0032807D0042807D0072033
:10CA000030BD002004E0012002E0CC5401E003200E
:10CA1000C8541088401C1080002030BDF8B52C4947
:10CA2000C8680A690C780F7989688646944600912F
:10CA30003EE00099E20055182A7836E01823534367
:10CA40006968521CC918AB78D2B2934200D1002257
:10CA50000B78022B02D0032B27D123E04E6803462C
:10CA6000014603E0B14204D00B46C96900291CD03D
:10CA7000F8E7002919D08B4208D1C069002805D1F8
:10CA8000144F0126BE600026B44601270E68C9690E
:10CA9000D961002909D00B689B190B6005E001746E
:10CAA000C06900E000210028F9D169789142C5D120
:10CAB0002146641EE4B20029BBD1054962460A61E1
:10CAC000C8600F71704501D00120F8BD0020F8BD8D
:10CAD0000C21002000100140F8B504463148002622
:10CAE000C168009107784EE02E48F90080680D1863
:10CAF00043E0002C02D02046E4691FE0287818218A
:10CB000041436A68401CC0B251182870AA7890420C
:10CB100000D12E700A784868012A30D1027C002AA0
:10CB20002DD18A684260CA6882600A69C260496918
:10CB300081611C490979002900D046601949436880
:10CB40000A699C46991A0902174B090A994202D2AE
:10CB50008268891807E06146511A09028268090A49
:10CB60008A4202D9511A016000E006604660012144
:10CB700086600174C66100F017FE002CB9D12878D8
:10CB800069788842BAD138467F1EFFB20028ABD1FF
:10CB90000448C1680098814201D00120F8BD0020FE
:10CBA000F8BD00000C210020FFFF7F00FFF77CFC98
:10CBB000152000F0DAF9FEE770B5144682880E46BB
:10CBC00005462088111D4118921C994201D8FE2A61
:10CBD00001D90C2070BD521C32542088FF21401C0A
:10CBE00080B2208031542088401C80B2208081197E
:10CBF000288800F053FF2188401880B22080AA883E
:10CC0000002A09D0A968002908D08019FEF7C4FAC3
:10CC10002088A98840182080002070BD072070BDA2
:10CC200070B5802000F0A6F8FEF71CFB0546084C06
:10CC30006421FEF79BFA643020702846FF38DC3808
:10CC40006170E060642801D96420E06070BD00007C
:10CC500080200020F8B5060002D0012E05D101E0A9
:10CC6000042000E0082000F085F8184F184D00243B
:10CC70002046FFF7F5FBFEF7F5FA797880080029E2
:10CC800007D0002E17D0002C1BD0022C19D0082C56
:10CC900017D0A100641C6850102CE9D300207F221B
:10CCA00081006B587F2B00D96A50401C1028F7D3A5
:10CCB00000F034FBF8BD062C03D00C2C01D00E2C58
:10CCC000E7D180000521FEF751FAE2E7A02000201D
:10CCD00078210020F8B50F46017814460546012951
:10CCE00002D16878002806D02088821C9A422DD86C
:10CCF000012902D006E00720F8BD69784118891C97
:10CD0000994223D8181A801E86B268460680218868
:10CD1000B81C081869467DDF0028EDD12878022864
:10CD200005D169460988B14201D809210AE00821E4
:10CD3000012805D16878B04202D86A46108001E027
:10CD40006846068068460088FE2801D90C20F8BD98
:10CD50002288401CB8542088401C80B2208039545E
:10CD600020886946401C20800988401820800020C7
:10CD7000F8BD000010B5064902024B68FF242402EA
:10CD8000A3431A434A60002800D00120086010BD68
:10CD90000075004031B5054C04E0401E009020466F
:10CDA000FEF7A8F900980028F7D138BDE703000086
:10CDB0008207D30EFF229A408907090E10B59940C9
:10CDC00000280BDA03071B0F083B9C080C4BA40040
:10CDD000E318DC6994430C43DC6107E08408094BE9
:10CDE000A400E418236893430B432360C106C90ED3
:10CDF00001208840044908600449086010BD000013
:10CE000000ED00E000E400E080E200E000E100E08E
:10CE100070B5012424048C40032605683602AD1940
:10CE2000002B01D06C6000E0AC600068890008183D
:10CE3000052109024018026470BD0000016801224A
:10CE40000A6000790C225043024A022180180172C4
:10CE50007047000058280020F0B5FF25023504680F
:10CE60008D40FF34FF340234059E2768AF432760AE
:10CE70000468FF34FF34023425681D4325603346BF
:10CE8000FFF7C6FFF0BD000070B504460D460079FF
:10CE90000C21264B4143CE18317A002901D00820BD
:10CEA00070BD002A02D0002D02D004E0072070BD22
:10CEB0001F49C00045183260686870600020034652
:10CEC00006E08100FF31226841315350401CC0B25E
:10CED00061798142F5D82068E978000B40B2FFF70C
:10CEE00067FF05202168000209186A784B68D2079D
:10CEF0005B085B00D20F13434B602268A9781218BD
:10CF0000936889079B089B00890F0B4393602168F6
:10CF10002A7808180169120709090901120F11433B
:10CF2000016101203072002070BD000058280020EF
:10CF30003CDD010030B552000A439900039C0A43CE
:10CF40002102049D0A4329040A4302498000401833
:10CF5000026030BD000700501CB500220B46009255
:10CF600011460192FFF7E6FF1CBD1CB500210091A0
:10CF70000B46012201911146FFF7DCFF1CBD0000AA
:10CF8000820006481018026803231B049A430260BB
:10CF9000026809040A43026070470000000700505D
:10CFA000012181400148C160704700000005005028
:10CFB0000121814001488160704700000005005058
:10CFC000034940180068012800D000207047000085
:10CFD000006000404058002800D001207047032224
:10CFE000120280184068084000D00120704710B538
:10CFF0000846114600F014F810BD00008AB210B5C2
:10D0000001460648FFF72AF80446082803D00028FE
:10D0100001D0FEF739FC204610BD0000C0250020DD
:10D0200010B504460078FE2818D16078002815D085
:10D03000012813D1A078800703D51120FFF7B8FF8E
:10D0400002E01120FFF7ACFFA078C00703D010204A
:10D05000FFF7AEFF02E01020FFF7A2FF0C222146EF
:10D0600040A0FEF7D1F8002869D00C22214641A04B
:10D07000FEF7CAF8002862D00522214641A0FEF73B
:10D08000C3F800285BD00522214640A0FEF7BCF87B
:10D09000002854D00D2221463EA0FEF7B5F8002806
:10D0A0004FD00D2221463FA0FEF7AEF8002848D011
:10D0B000052221463FA0FEF7A7F8002841D005220F
:10D0C00021463EA0FEF7A0F800283AD00D222146C6
:10D0D0003CA0FEF799F8002835D00D2221463DA04E
:10D0E000FEF792F800282ED0052221463DA0FEF73B
:10D0F0008BF8002827D0052221463CA0FEF784F8B3
:10D10000002820D00E2221463AA0FEF77DF8002804
:10D110001DD00E2221463BA0FEF776F8002816D03F
:10D12000052221463BA0FEF76FF800280FD005220C
:10D1300021463AA0FEF768F8002808D00AE011203E
:10D1400002E0112004E01020FFF732FF02E010207F
:10D15000FFF726FF0520FFF71DFE012000F094FBDE
:10D1600010BD00007475726E206F6E206C65667461
:10D17000000000007475726E206C656674206F6E1E
:10D18000000000007031372031000000503137209E
:10D19000310000007475726E206F6666206C6566E3
:10D1A000740000007475726E206C656674206F6682
:10D1B0006600000070313720300000005031372009
:10D1C000300000007475726E206F6E20726967689F
:10D1D000740000007475726E207269676874206F45
:10D1E0006E000000703136203100000050313620D2
:10D1F000310000007475726E206F66662072696778
:10D20000687400007475726E207269676874206FAC
:10D210006666000070313620300000005031362044
:10D220003000000010B5002809D0032806D10220E4
:10D23000FEF7BEFF002801D0FEF726FB10BD00F070
:10D24000FBF910BD70B5054600881B4C102816D0A0
:10D2500011281DD0132826D052280FD100231A469A
:10D2600019466088A9DF002801D0FEF70DFB288849
:10D2700010281ED0112801D10020207070BD072079
:10D28000FEF796FF002801D0FEF7FEFAA88808E016
:10D290000020FEF78DFF002801D0FEF7F5FA0020F0
:10D2A000C0436080E3E700231A46852160887FDF62
:10D2B000D9E70120E1E70000AA20002010B500789E
:10D2C000002807D104483B21408876DF002801D0A0
:10D2D000FEF7DAFA10BD0000AA2000200021425C0F
:10D2E000002A01D001207047491C0629F7D30020ED
:10D2F0007047000007490979490701D408207047A1
:10D30000002804D0044949780160002070470E20AD
:10D3100070470000E82000208027002010B5164844
:10D3200094B0016800914168019181680291C168DF
:10D330000391016A0491416A0591816A0691C16A6B
:10D340000791016908914169099181690A91C1694F
:10D350000B91016B0C91416B0D91816B0E91C16B27
:10D360000F9100216B468A009C58491C845010295B
:10D37000F9DB14B010BD00007821002070B5012445
:10D380000B49600408600B49401088600949403926
:10D390008860094D6C602F20FDF7BCFEAC60074D26
:10D3A00000242F202C61FDF7B5FEEC7070BD00004D
:10D3B00080E100E040130140001001400C210020FA
:10D3C00030B50A48FF21C57D0022094C0931094BBF
:10D3D000002D625007D09969437EC268D154417EC6
:10D3E000491C417630BD986930BD0000642700209B
:10D3F000002000400025004070B500240546601C58
:10D4000090B00007000F08A9103008940870601C45
:10D410000007000F103048708878F9263040801CD3
:10D4200088701C2101A8FDF7D0FE694608791021FB
:10D43000084369460871029408A804940594079467
:10D440000690287808A988710320694688841120ED
:10D450000094087048708878F7213040801C08409C
:10D46000EF210840012630436946887014210AA83C
:10D47000FDF7ABFE09A80A9068460B9069460E8638
:10D4800014204C8688862B4668880C330AAA01A98A
:10D49000A2DF10B070BD00001FB501236A461370F3
:10D4A00010720348019106C8684690471FBD0000EE
:10D4B0006427002010B50020FFF7CCFBFFF7B0FB7E
:10D4C00000F006FC002000F0CDFB074800F008FC4F
:10D4D0000120FFF7BFFB00F0FBFB012000F0C2FBC7
:10D4E000014800F0FDFB10BD6421002008B5024991
:10D4F0000020009108BD00008020002010B501210F
:10D50000202805DA1A4A8140114201D1194810BD7C
:10D510008107C90E002808DA0207120F083A92089C
:10D52000154B9200D218D26904E08208134B920086
:10D53000D2181268CA401106890F042911D2002995
:10D540000FD002290DD00E494C68C306DB0E012214
:10D550009A40002C08D0400980000B5813430B5010
:10D5600004E00448401C10BD06480260002010BDC5
:10D57000FC06FFBC0120000000ED00E000E400E03C
:10D580004021002000E100E0FFB50746806A81B03D
:10D59000144600283DD0002538462030009033E066
:10D5A0000C20B96A68430E18B088801CFE2802D986
:10D5B0000C2005B0F0BD22880299401C88542088B8
:10D5C0001622401C80B2208002990A542088401CF8
:10D5D00080B2208002994118308800F05FFA2188DB
:10D5E000401880B22080B288002A0AD0B168002991
:10D5F0000FD0029BC018FDF7CFFD2088B1884018DE
:10D6000020806D1C0098EDB2007BA842C8D8002095
:10D61000CFE70720CDE7000008B505480090694630
:10D620000448FEF7BBFC002801D0FEF72DF908BD29
:10D63000EFCF0100C025002010B50020FEF7B8FD97
:10D64000002801D0FEF720F9FEF7A6FD002801D042
:10D65000FEF71AF93CDF002801D0FEF715F910BDDE
:10D66000002803D00249C860002070470E20704790
:10D670002C2100201CB5034901910091694660DF0F
:10D680001CBD00008020002070B50E4605461446E3
:10D6900014211046FDF799FD012000212080216111
:10D6A000217326726572002D00D0A072002070BD1B
:10D6B00010B5FEF7DBF810BD70B5002901D08C075E
:10D6C00001D0072070BD074C0125A160628006498A
:10D6D000636010DF0028F5D125701620FFF70EFFDC
:10D6E00070BD00002C210020B1D6010010B5084CFF
:10D6F0002069401C2061C00709D02146002020314C
:10D700000870A06900F0FAFAA069401CA06110BD81
:10D7100080200020FEB51F4C00252769E06802909C
:10D720006846FFF773F80190FFF778F9064601980D
:10D73000002822D000230098E16817E00E680A460E
:10D74000864202D9301A086012E0801BF3180026C6
:10D750001660D668D169B446002E07D0FE1836028E
:10D76000360A566066469660D56115460029E5D1B1
:10D770002846E160FFF7B0F906E02846FFF7ACF96C
:10D78000002801D1002E02D00298FEF715FE0020DD
:10D790002071FEBD0C210020012002490005086017
:10D7A0007047000000E200E010B50E4BD968002978
:10D7B00006D002680C68A24204D8A21A0A60C161AD
:10D7C000D86010BD0B4604E00B46C969121B002946
:10D7D00004D00C689442F7D3A41A0C600260C161B3
:10D7E000D86110BD0C21002010B5FF38413803D09E
:10D7F000042801D1FFF77AFF02484169491C4161C1
:10D8000010BD000080200020F8B51D4DEC68002CF4
:10D8100034D01C48002740682969401A0602360A9D
:10D820002068B04218D8361AC7192246107CE4691D
:10D8300000280FD0002010746B69002B07D091696D
:10D8400050699847002805D0FEF71EF802E051699C
:10D8500090698847002CE3D16978A878814206D185
:10D86000401CC0B2A870022801D10020A870044951
:10D870000006800D18310F50FFF78EFFF8BD000035
:10D880000C210020001501400549095C0120884059
:10D890000F2149050840034988600020C86070478F
:10D8A00010DD010000050050FF2107481D31002256
:10D8B00042500648828A8168895C828A521C828230
:10D8C0000348C16170470000002000406427002029
:10D8D0000025004070B58EB005461C216846FDF756
:10D8E00074FC694608780C210843694608700024D6
:10D8F00001940394049405940694287808A98870E8
:10D90000022069460884601C0007000F103007944D
:10D91000087711204877887FF9210840F721801C7B
:10D920000840EF21084001263043694688771421DA
:10D9300009A8FDF74AFC08A8099007A80A906946BB
:10D940008E851420CC85088668882B1D09AAA2DF45
:10D950000EB070BD1FB500216A46117010720448E8
:10D9600082680192817506C8684690471FBD000015
:10D9700064270020F0B5454D012185B049022846B5
:10D98000FFF72DFB01270026414C002824D0FF2162
:10D9900025312846FFF71EFB00281DD0FF2025302B
:10D9A0002E5081203B4980008860A07E002800D155
:10D9B0006F6002216846017037490868086003906B
:10D9C000E17D68460172E0680190E675267606CC36
:10D9D0006846083C90472BE004212846FFF7FFFAF1
:10D9E000002825D0FF2109312846FFF7F3FA002847
:10D9F0001ED0FFF7E5FCE07D617E884218D1207ED5
:10DA0000002808D0627EE168E0752069E060267633
:10DA1000667610460AE0A07E002800D16F60812063
:10DA20001C4980008860E675607EE168FFF734FD80
:10DA3000FF211D312846FFF7CDFA00280DD0A18A1D
:10DA4000A07D814202D2FFF72FFF06E0FF211D31AA
:10DA50006E50002801D0FFF77DFFFF214531284699
:10DA6000FFF7B8FA00280ED0FF2045302E50A07ED8
:10DA7000002800D02F60E07D002804D0E675607E8D
:10DA8000E168FFF709FD05B0F0BD0000002000408F
:10DA90006427002000230040802400400870000A12
:10DAA000487002207047000038B51549154A48886B
:10DAB00090420FD04A78144C521CD2B24A70237B49
:10DAC000934208D3091D75DF002803D0A1690029FE
:10DAD00000D0884738BD00254D70217C002907D033
:10DAE0003B2176DF002803D0A169002900D08847B8
:10DAF00061690029EED068460570884738BD00008E
:10DB0000D4200020FFFF000000270020EFF3058055
:10DB1000C005C00D1AD0103840B2002808DA01073D
:10DB2000090F083989080C4A89008918C96904E075
:10DB300081080A4A8900891809688007C00EC14017
:10DB40000806800F012803D0032803D00220704765
:10DB5000002070470120704700ED00E000E400E085
:10DB600042788378521CD2B2934200D100220378CB
:10DB7000934201D1002070470A7041684078182212
:10DB8000504308187047FFB583B016460C9D0D9C96
:10DB90001F46022200950194039800F00CF800281B
:10DBA00007D13B461022314600950194039800F0BE
:10DBB00002F807B0F0BDFFB583B0074600200C9C0B
:10DBC0008646268805463AE07868A90042181188FA
:10DBD000684681805188C1800022694601A865DFBE
:10DBE000002839D1684601780598814226D17046CF
:10DBF000002801D0002200E0022220888918421863
:10DC00000D998A4227D8714600290AD1401C80B25A
:10DC10002080069A049911542088401C20800120FD
:10DC20008646218806980A18694601A865DF0028FB
:10DC300012D1694620880978401820806D1C3888E8
:10DC4000A842C1DC704600280AD02088801B401EF4
:10DC500080B2FF2802D90C2007B0F0BD0699885584
:10DC60000020F9E7F0B5184900284A78174923D071
:10DC7000002A27D052200870134F0020203FBC6894
:10DC80007B68124D86001435AD590E18EB1875706F
:10DC9000052D00D9641C401C1028F2DBBC607B60A1
:10DCA000387B48740848920103788078DB0113437D
:10DCB00040010343CB74F0BD002A01D04C20DAE7C9
:10DCC0004D20D8E75320D6E7A02000206421002073
:10DCD00010B514210148FDF778FA10BD6421002029
:10DCE00010B51421FFF78AF910BD0179002902D17E
:10DCF000007B002800D001207047000010B50349C8
:10DD000000204860FFF7D6FB10BD000080200020F7
:10DD100015161718009000400104000002020000D0
:10DD20000000000001000007E02600209ECADC245D
:10DD30000EE5A9E093F3A3B50000406E00000303D5
:10DD4000000000000700000300000000C8280020B9
:10DD5000E828002074DD010080200020E40000009D
:10DD60009AB5010058DE010064210020A40F0000D4
:10DD7000AAB5010000000000000000000000000043
:10DD80000000000000000000000000000000000093
:10DD90000000000000000000000000000000000083
:10DDA000FFFF010002000000000000000000000072
:10DDB000FFFF000000000000000000000000000065
:10DDC0000000000000000000000000000000000053
:10DDD0000000000000000000000000000000000043
:10DDE0000000000000000000000000000000000033
:10DDF0000000000000000000000000000000000023
:10DE00000000000000000000000000000000000012
:10DE10000000000000000000000000000000000002
:10DE200000000000000000000000000000000000F2
:10DE300000000000000000000000000000000000E2
:10DE400000000000000000000000000000000000D2
:08DE5000000000000024F400B2
:040000050001B0C185
:00000001FF
