:020000040001F9
:10B000005833002035B101004FB1010051B10100AA
:10B010000000000000000000000000000000000030
:10B0200000000000000000000000000053B101001B
:10B03000000000000000000055B1010057B1010000
:10B0400059B1010059B1010001B6010059B1010027
:10B0500059B101000000000081B301003DB30100BF
:10B0600059B1010059B1010059B1010059B10100B4
:10B0700059B1010059B1010059B1010059B10100A4
:10B0800059B1010019B5010059B1010059B10100D0
:10B0900039B5010059B1010041B5010059B10100B4
:10B0A00059B1010059B1010000000000000000008A
:10B0B0000000000000000000000000000000000090
:10B0C0000348854600F0EAF800480047D1E6010051
:10B0D00058330020401E00BF00BF00BF00BF00BFAC
:10B0E00000BF00BF00BF00BF00BF00BF00BFF1D165
:10B0F00070470000401E00BF00BF00BF00BF00BF80
:10B1000000BF00BF00BF00BF00BF00BF00BFF1D144
:10B1100070470000401E00BF00BF00BF00BF00BF5F
:10B1200000BF00BF00BF00BF00BF00BF00BFF1D124
:10B13000704700000321094802680A43026008487A
:10B1400002680A4302600748804707480047FEE755
:10B15000FEE7FEE7FEE7FEE7FEE70000240500400D
:10B160005405004061B50100C1B0010030B50B4687
:10B17000014600202022012409E00D46D5409D42D1
:10B1800005D31D469540491B254695404019154657
:10B19000521E002DF1DC30BD70B50024254600287C
:10B1A00001DA01244042002901DA01254942FFF772
:10B1B000DDFFAC4200D04042002C00D0494270BDBF
:10B1C00003460B439B0703D009E008C9121F08C0C0
:10B1D000042AFAD203E00B780370401C491C521E6B
:10B1E000F9D27047D2B201E00270401C491EFBD276
:10B1F00070470022F6E710B513460A460446194682
:10B20000FFF7F0FF204610BD10B5044605E00B78AF
:10B210000370401C002B00D0491C521EF7D2204660
:10B2200010BD30B504460020034600E05B1C93428D
:10B2300003D2E05CCD5C401BF8D030BDF0B51FB44C
:10B240000646002082B005464024019100901BE094
:10B25000019922460F46304600F042F8049A059BB9
:10B26000801A994110D310461946224600F028F85A
:10B27000361A8F410197224601200021009F00F0DD
:10B280001FF838184D4100902046641E0028DFDC6E
:10B29000019B00982946324607B0F0BD064C0125B7
:10B2A000064E05E0E36807CC2B430C3C984710346E
:10B2B000B442F7D3FFF708FF6C0902008C090200C3
:10B2C00010B5202A04DB0146203A9140002010BD31
:10B2D000914020239C1A0346E3401943904010BD3F
:10B2E00010B5202A04DB0846203AD040002110BDCA
:10B2F0000B46D340D0402024A21A9140084319465F
:10B3000010BD30B58C180278401C13071B0F01D1FB
:10B310000378401C120906D10278401C03E005782E
:10B320000D70401C491C5B1EF9D101E00B70491CDB
:10B33000521EFBD1A142E6D3002030BD03490020BC
:10B3400008600348806803498860704700710040C6
:10B3500000750040AC20002010B50120FFF7BAFEB8
:10B36000054C0020A0600549012008605020FFF72F
:10B37000B1FEA06810BD0000AC20002000700040AD
:10B38000F0B50025FF248BB0013401262F4601952E
:10B39000204603F071FE002808D04748406830423C
:10B3A00004D046480021201835430160241D760052
:10B3B0007F1CA4B2042FEBD3FF207D3003F05CFE92
:10B3C000002807D03E4800210160400705433D4862
:10B3D000006901903C4C280712D0012700262F421B
:10B3E0000AD03A48B200111808690969C004C00EB1
:10B3F0008903A258890F90477F00761C042EEED354
:10B40000002D57DA00200590401E4DE0A119403173
:10B4100008788506AD0E42B2521C39D00121A940F0
:10B42000089A0091114233D080090390284601F018
:10B430004FFD800020580490002802D10398032873
:10B4400026D103980099032802D105980843059056
:10B450001F4AA80080180068019A8003800F1142DB
:10B4600002D0022802D013E0032811D10399032946
:10B4700007D102281CD00221284603F0CDFD7F1CF5
:10B48000FFB20498002803D0049A284603999047F5
:10B49000761C042EBAD3002F0CD00A4800690199FB
:10B4A000884207D00190059800273E460890ADE7F6
:10B4B0000321E1E70BB0F0BD0063004000600040F5
:10B4C0007C61004000050050A42900200065004078
:10B4D000000700508307FF22DB0E9A408907090E00
:10B4E000994000280BDA0007000F08388308084845
:10B4F0009B001818C36993430B43C36170478308CB
:10B5000004489B001B181868904308431860704754
:10B5100000ED00E000E400E010B5064900200860FE
:10B5200048608860C860034940390860486004F09A
:10B53000D3FD10BD4011014010B504F063FD10BDF6
:10B5400010B506484068002805D08047002801D083
:10B5500000F0F0FB10BD02F021FF10BD8C21002097
:10B5600010B502F06BFF002805D01F491D48486048
:10B57000C8131E4988611E48018CC9B201290BD12C
:10B58000828C120708D1028D1206120F042A03D1F1
:10B59000828D1206120F0AD0012921D1818C090750
:10B5A0001ED1018D0906090F0A2904D007E0114AAE
:10B5B00001219160F5E7828D1206120F05D00D2949
:10B5C0000ED1808D0006000F0AD10B4801680129B9
:10B5D00004D00A49016001680129FCD1C021416100
:10B5E00010BD0000DFFF07C000050040006C0040F8
:10B5F000C00F00F00006004000EC0640759300000C
:10B6000010B504F0F7FE10BD0FB410B503A9044B3C
:10B61000044A029800F024F810BC08BC04B0184793
:10B62000F5DF01008821002030B47446641E2578BF
:10B63000641CAB4200D21D46635D5B00E31830BC66
:10B64000184702E008C8121F08C1002AFAD1704743
:10B650007047002001E001C1121F002AFBD1704792
:10B66000FFB58FB00F460446002606E025280AD015
:10B67000129A11999047641C761C20780028F5D105
:10B68000304613B0F0BD00250121A14A009500E02D
:10B690000543641C23780846203B98401042F7D1AC
:10B6A00020782E2815D1042005436078641C2A28B0
:10B6B0000AD101CF641C00900BE000990A2251438B
:10B6C00030394018641C009020780146303909292F
:10B6D000F3D920786C280ED004DC4C2813D06A28CB
:10B6E00012D104E074280ED07A280DD10BE001208D
:10B6F0004005054307E00121090562780D438242B8
:10B7000001D16D18641C641C2078864669284AD0D3
:10B7100008DC0028B4D058286DD0632810D06428E5
:10B7200008D140E070286BD0732812D0752860D003
:10B73000782860D0129A704611999047761CE5E0FF
:10B740003878694608720020487202A801900120EA
:10B7500003E0386801900020C0433F1D69070CD505
:10B76000002500E06D1C00998D420FDA8542F9DB5F
:10B770000199495D0029F5D108E0002500E06D1C24
:10B780008542FCDB0199495D0029F8D1761907E073
:10B79000019801990078491C0191129A11999047DA
:10B7A0006D1EF5D2B2E00A20029000216802400F1F
:10B7B000039102280CD001CFC117844600290DDA6D
:10B7C0006246084652420021814194462D2008E0FD
:10B7D000FF1DFF08FF0003CF8446EFE7280504D5CF
:10B7E0002B206A46107401203CE0E8073AD0202064
:10B7F000F7E70A2000E0102000210391029007E003
:10B80000102002900021042005430820039100909D
:10B810006802400F022810D001CF0021844600208A
:10B820000D9028071FD5704670280CD0029A102062
:10B83000039B42401A430CD015E0FF1DFF08FF0098
:10B8400003CF8446EBE740206A46107401200D9038
:10B850000CE06046084306D030206A4610747046FB
:10B86000507402200D907046582804D029A00190F1
:10B870000DA80E900DE02CA0F9E76046039B029AFC
:10B88000FFF7DCFC019B84469B5C0E9A521E0E92D5
:10B89000137060460843F0D10E9805A9081A2030AD
:10B8A0000190680701D5009801E0012000900199FE
:10B8B000884203DD01460198081A00E000200025B7
:10B8C000009006E004A8129A405D119990476D1C03
:10B8D000761C0D988542F5DB04E0129A3020119910
:10B8E0009047761C0099481E00900029F5DC08E07E
:10B8F0000E980E990078491C0E91129A1199904752
:10B90000761C0199481E01900029F1DC641CB4E604
:10B910000928010030313233343536373839616225
:10B9200063646566000000003031323334353637E9
:10B93000383941424344454600000000F7B584B021
:10B940000025168807461580406B1446002813D042
:10B9500003780598032E51D302210170218811220A
:10B96000491C89B2218042542188491C89B2218016
:10B9700043542088401C2080386B00281DD0054689
:10B980002088059902461232B24237D811220A5451
:10B9900020881022401C80B220800A542088401C3D
:10B9A00020800F202A5C2388401ECA54228840B27F
:10B9B000521C22800028F5DA0025384620300290FB
:10B9C000807B002806D033462246059902F082FD8E
:10B9D000050014D10298407B002806D0324621464B
:10B9E000059800F06DFE050009D1B878002823D035
:10B9F000059886462088001DB04202D90C2007B069
:10BA0000F0BD684679DF0028F9D12188032072460D
:10BA1000505420881921401C80B220801154208865
:10BA20007146401C80B2208041186846008804F0AE
:10BA300075FD218840182080F878002817D02188CB
:10BA400003230A46FB56C91C0598B142D6D80221E9
:10BA5000815421880122491C89B2218042542188C5
:10BA6000491C89B2218043542088401C208078687A
:10BA7000002817D021880023C3560A46C91C059800
:10BA8000B142BBD80221815421880A22491C89B2C3
:10BA9000218042542188491C89B221804354208846
:10BAA000401C2080388900280AD00094384601962E
:10BAB000062202210830059B04F0AFFD05009ED14F
:10BAC000388A00280AD000943846019607220321BC
:10BAD0001030059B04F0A1FD050090D1388B0028A3
:10BAE0000AD0009438460196152214211830059B7F
:10BAF00004F093FD050082D1386A002806D0334651
:10BB00002246059901F026FC0500D8D1786A002864
:10BB100006D033462246059902F03CFE0500CED100
:10BB20000298007B002807D0334622463846059904
:10BB300004F038F80500C2D13878002807D0334621
:10BB400022463846059902F0D1FE0500B7D12846B5
:10BB500055E70000F0B5A9B00D460746382101A809
:10BB6000FFF747FB0221684601710024847106211A
:10BB7000C17138210FA8FFF73CFB012610A8868170
:10BB8000104814902694611E279420A801832897BA
:10BB9000858326A80A9024211DA8FFF72AFB20A848
:10BBA0000670402021902294074B1DAA0FA90094F3
:10BBB00001A800F001FB002801D000F0BBF829B07B
:10BBC000F0BD00009C200020D9F0010010B501223A
:10BBD0000221002000F09EFF002801D0072812D18A
:10BBE00007220221012000F095FF002801D007283C
:10BBF00009D100210A22084600F08CFF002801D05C
:10BC0000072800D1002010BD30B5A7B0382101A809
:10BC1000FFF7EFFA022168460171002484710621C2
:10BC2000C17138210FA8FFF7E4FA012510A885811A
:10BC30000B48149024211DA8FFF7DBFA20A80570FB
:10BC4000402021902294074B1DAA0FA9009401A81F
:10BC500000F0B2FA002801D000F06CF827B030BD37
:10BC60009C200020D9F00100044842680121090409
:10BC70000B46934383600A40C26070470005005042
:10BC800070B50024064D06E06968E000085C0121FB
:10BC900002F0E0FE641C28788442F5D3002070BDD9
:10BCA00054210020F8B515460C460646052A01D257
:10BCB0000720F8BD02F0A4FF002803D102F076FFB0
:10BCC0000028F6D1104900204E600C70C8608D60CD
:10BCD00008610E4D0DE0E0006968801900918178DF
:10BCE0006A46517000780A4A694602F003FF00284C
:10BCF000DFD12046641EE4B20028ECD1054A0021C1
:10BD0000024800F0ADF8F8BD542100201C090200E3
:10BD1000D5E2010065D50100BFF34F8F0449034808
:10BD2000C860BFF34F8F00BFFDE700000400FA05B5
:10BD300000ED00E00EB50021029000916A460191ED
:10BD40000148FFF7E9FF0EBD01400000014B1B68F1
:10BD5000184700006029002010B58268C36893422C
:10BD600003D002F0D9F8002010BD052010BD002935
:10BD700006D0002A02D0531E134203D00920704778
:10BD80000E2070470160838000218160C1600846F9
:10BD9000704710B58268C3689A1A83889A4203D89C
:10BDA00002F0C4F8002010BD042010BD10B518200A
:10BDB00002F092FF10BD10B5002803D0182002F049
:10BDC0007FFF10BD182002F02BFF10BD10B501F051
:10BDD0000EFA04F0F7F80E4C00220C49206800F02F
:10BDE0009DF8002801D0FFF7A5FF002002F050FACF
:10BDF000002809D1012100220904606800F08EF8B2
:10BE0000002801D0FFF796FF10BD0000CD0C000008
:10BE10002C08020038B50C46A2680C235A43064B86
:10BE200009789D58054A126A009202462046083059
:10BE30002369A84738BD0000D42A00203021002003
:10BE400010B5064914230A785A435118091DFFF703
:10BE5000E1FF042003F01EFF10BD0000082A0020AF
:10BE6000094B9B68002B07D0002A07D0002805D07B
:10BE70000068037C002B03D0082070470720704720
:10BE8000417442610020704768210020FFB590078F
:10BE9000002581B014460E46002832D11B4F002CDD
:10BEA00031D003F087FD0498786103203870334661
:10BEB0001821224600204B43BC601834C100891869
:10BEC0000D704D708E704C601C19401C0328F5DB02
:10BED000FD607D7001240E48BD70240504600321BF
:10BEE0001420FFF7F7FA0B4804600B4C0198A06090
:10BEF00003211120FFF7EEFA60683861002005B0D9
:10BF0000F0BD0720FBE7BD60FBE7000068210020D3
:10BF100080E200E000E100E000150140FEB50D46C2
:10BF20001B4917468968044600292AD0002C28D0CE
:10BF3000052D01D20720FEBD6069002821D0607C5C
:10BF4000012820D0002604F02BFBC00010490190EE
:10BF500089684018694604F04DFB002815D001217E
:10BF600001700C49446049680830E2C008490198F2
:10BF70008968411868460078487004F085F8002008
:10BF8000FEBD0820FEBD2E46DDE70420FEBD0000FC
:10BF90006821002000150140F8B5134D0446A9683A
:10BFA00000291CD0002C1AD06069002817D0002668
:10BFB000267404F0F5FAC700A8686946381804F03A
:10BFC00019FB00280DD0022101704460A8683918BF
:10BFD00068460078487004F057F83046F8BD0820ED
:10BFE000F8BD0420F8BD000068210020002000E01A
:10BFF000401C8842FCD3704710B50446094881684C
:10C00000C2688088511A814207D10121064802F096
:10C01000D3FE002801D0052010BD21460148FFF7BE
:10C020009BFE10BD842900202921002070B5044604
:10C03000224888B01E460D0042601CD0A88829689E
:10C0400082B21F48FFF793FE002815D1A889A9687E
:10C0500082B21B481030FFF78AFE00280CD1202244
:10C0600018496846FFF7ACF8A068069020790028C8
:10C0700004D0012103E0072008B070BD002168460C
:10C08000017506776079002800D00E206946487552
:10C09000E0780290A078039020780190607800907A
:10C0A0000949684602F024FE0028E5D102F0AAFE04
:10C0B00002480121401C02F07FFEDDE7282100201C
:10C0C00084290020B40802000503020010B50146CF
:10C0D0000A48FFF75EFE04000ED102F039FF002887
:10C0E0000AD107490548FFF737FE002804D101218E
:10C0F000034802F0E1FE0446204610BD94290020CA
:10C100002821002070B505460E4A00210E48FFF791
:10C11000A7FE041E01D0FFF70DFE00200B49002DE5
:10C12000087002D0012D07D103E0032000F060F970
:10C1300001E001F0BDF80446200001D0FFF7FAFD50
:10C14000204670BDE5C80100340802009820002098
:10C15000F0B50C4693B01F216A46118007260027D0
:10C160009180002809D0C17849070DD502A9FFF7B1
:10C17000E5FB002809D102AD01E000251780002C65
:10C180000ED0E078002802D0304613B0F0BD01AAEE
:10C190000AA92046FFF7D2FB0028F6D10AAA02E03E
:10C1A00068460022878068468088C3B26846008857
:10C1B000C1B2284672DFE8E770B50D46049916460D
:10C1C000040042D0002E40D0424800224271C36099
:10C1D0000161242231464048FEF7F2FF00F0D4F816
:10C1E0003D493431084610380160203181603821E2
:10C1F0005C38FEF7FEFF3848217838380170A178A6
:10C200008170E178C1706178417062692169426131
:10C210000161E268A168C26081600146E369A269C8
:10C22000CB618A61616A002919D00146AC310246AE
:10C23000B83241628A60636A1B880B80616A436A14
:10C24000898899800021436A06E00E2070BD666AE5
:10C25000B668765C5654491C9E888E42F7D8A16A0F
:10C2600000291CD01C4AAC3211460C398A6081620C
:10C27000A36A9B888B80A16A836A09881980002140
:10C28000836A04E0A66AB668765C5654491C9E88A8
:10C290008E42F7D82C210A5D0F4918390A73216A9A
:10C2A000002909D00B4914310162226A52884A8060
:10C2B000216A026A098811806168002904D0054951
:10C2C000891D416061684160034829463838FFF79D
:10C2D0003FFF70BDDC2000205427002010B50288ED
:10C2E0001C4C102A17D00021112A1AD01B2A11D158
:10C2F000007A00280ED1607901281ED0022822D0B1
:10C30000032822D0042805D12171E2680846002ABA
:10C3100000D0904710BD817D0129FBD1808820810C
:10C3200010BD6170808821898842F9D1012005E023
:10C3300021690029F4D0884710BD022000F058F888
:10C340000028F5D110BD0320F8E703202071042058
:10C35000F4E70000DC20002010B5022801D00328FB
:10C360000ED1084C207800280AD000202070607977
:10C3700000F03EF8002803D02169002900D088474A
:10C3800010BD0000DC20002010B507210148FEF799
:10C3900030FF10BDF420002010B5134800780128AC
:10C3A0001FD1124C607800281BD16079002802D080
:10C3B00074DF002816D101200B496070062038393F
:10C3C000C870094800213838FFF7C2FE002809D19B
:10C3D000607900F00DF8002803D02169002900D011
:10C3E0008847002010BD000054270020DC200020DA
:10C3F000F0B5784C87B06071002606A8069603F069
:10C400006BF80127082802D0002808D104E006A80C
:10C4100001F0F8FD002804D10698002801D027700B
:10C42000D4E0FFF7B1FF6C4D6878002802D0607946
:10C43000012807D0A87800280CD06079012801D005
:10C44000022824D1E168002903D0E770082088473A
:10C4500000E0E6706079012808D16878002809D0EA
:10C460005C48193002F0D4FF002803D0607902281C
:10C4700002D00CE002206071A878002805D0554851
:10C48000193002F0C5FF002801D103206071287B1C
:10C49000002804D16079032801D104206071287E2E
:10C4A000002804D16079042801D166712671E16801
:10C4B00000290AD06079032801D0042805D1287802
:10C4C000002802D06078002817D0A670182168468E
:10C4D000FEF78FFE68460670019606720396607935
:10C4E00001280ED0022815D03B4E243637465C3F3B
:10C4F00003281BD004285DD13AE0A77007208847A5
:10C50000E4E7344818300190684607704682068296
:10C51000277152E02F48183001906846077029892A
:10C520004182A98801820220207146E0A88A6946DA
:10C530004882288A08822848243004F042F90028DA
:10C5400005D02878002802D06078002801D0032088
:10C550002FE002206946087204200396F8701E48F6
:10C5600000213838FFF7F4FD002830D1052020E005
:10C57000A88B69460882288C48821748243004F02A
:10C5800020F9002805D02878002802D060780028FB
:10C5900001D004200DE002206946087204200396B1
:10C5A000F8700D4800213838FFF7D2FD00280ED171
:10C5B000062020716079002803D0684673DF0028C8
:10C5C00005D1E168002901D020798847002007B013
:10C5D000F0BD0000DC2000205427002070B5054687
:10C5E00001461C220E48FEF7EBFD0E4C002626707D
:10C5F0002968002906D00822201DFEF7E1FD201D34
:10C600007ADF02E00748001D7BDF002807D1401ECB
:10C6100060806670044A00210448FFF721FC70BD69
:10C6200040280020FC2000203D0502007008020088
:10C63000F8B5214C028800271E4DE689102A15D036
:10C640001E49112A21D0122A2DD0502A1CD1C2886D
:10C65000801DB24218D14289022A15D1427B037B48
:10C6600010021843C007C00F0CD112E08188698006
:10C6700001461048082218310C30FEF7A1FD6F70FA
:10C68000002E01D100F0D2FEF8BD0020C04368802A
:10C690006F700868FFF780FC0028F5D0A1690029B9
:10C6A000F2D08847F8BD0822811802480C30FEF706
:10C6B00087FDE7E7FC2000204028002070080200EA
:10C6C0007CB5054608880C460930904201D90C20FB
:10C6D0007CBD684671DF0028FAD1218808206854A3
:10C6E00020881B21401C80B220802954208800A96A
:10C6F000401C80B22080401906220131FEF760FD07
:10C7000020886946801D80B220800978002900D0E9
:10C71000012129542088401C208000207CBD00007D
:10C7200010B504460146094800F046F82046FFF7D8
:10C730007FFF204601F074F8204600F037F92046CC
:10C7400002F0EAFC2046FFF7C9FD10BD6C24002072
:10C7500030B5184B0D4604000FCB85B003936B46E4
:10C7600007C324D0002D22D00020C043A082286817
:10C77000A0610020A0752146684663DF002814D11F
:10C7800021786846817401210182A21C04A901203C
:10C79000A0DF002809D12946204603F049F90028E6
:10C7A00003D12946204603F0EDFC05B030BD0E2034
:10C7B000FBE700007408020000281ED000291CD0EE
:10C7C0000A88102A14D0112A14D0502A15D1CA88E8
:10C7D000038A891D9A4202D14B89022B0ED083888D
:10C7E0009A420AD18369002B07D04A890C31184735
:10C7F000898801E00021C943818270474A7B0B7B15
:10C8000011021943C907C90F00D001218175704772
:10C8100007B584B000280DD0828A114B9A420BD004
:10C82000827D002A08D06A46128B142A06D9072076
:10C8300007B000BD0E20FBE70820F9E700220092B8
:10C8400001920292039282896B461A80039106A993
:10C85000029101219970808A6946A6DFE8E700000D
:10C86000FFFF000000B51A4887B04068059000231C
:10C870004822184905A803F05DFA002801D0FFF707
:10C8800059FA6A460121002003F03CFA002801D041
:10C89000FFF750FA104803F037F9002801D0FFF7EE
:10C8A00049FA684603F024FA002801D0FFF742FA5B
:10C8B0000A4803F013FA002801D0FFF73BFA0848B2
:10C8C00003F052FA002801D0FFF734FA07B000BD98
:10C8D0003408020008240020E81F002021C70100BE
:10C8E0005DFF0100072404E0FFF760FAC82002F0B2
:10C8F00073F8641EF8D2BFF34F8F04490248C86032
:10C90000BFF34F8F00BFFDE70400FA0500ED00E024
:10C910001CB5044681786A460C4802F0F1FD0028F7
:10C9200012D160781C21484309491C2340181A463B
:10C93000694602F09FFE064806494030807A800032
:10C940000A582146684690471CBD0000202100205F
:10C9500020290020940802007CB5134E00250C46C7
:10C960003060002918D06946002000F0A1F80028A6
:10C9700019D101A9012000F09BF8002813D16846C5
:10C9800001790020002901D0022004E069460978DD
:10C99000002900D00B2020707068002802D1FFF71A
:10C9A00015F9054628467CBDD420002010B51C4C46
:10C9B0000188606810290DD011290AD1401E6060DD
:10C9C00007D1FFF703F9002803D02168002900D020
:10C9D000884710BD00281ED100210122084600F022
:10C9E00099F8002801D0072811D10722022101203F
:10C9F00000F090F8002801D0072808D10422022175
:10CA0000002000F087F8002805D0072803D021680F
:10CA1000002900D088476068401C606010BD00009D
:10CA2000D420002010B5032000F0E4F9002801D044
:10CA3000062800D1002010BDF8B507461A48006846
:10CA4000B84213D11848194D0C38EE1E002921D0D8
:10CA50002A46527801290AD0022907D11446002C0F
:10CA600004D07169002901D020468847F8BD2C7890
:10CA7000002A0AD0B1680A2251430C4A8068921EEB
:10CA8000FFF74CFA002800D177700848A978401EBB
:10CA90000170E4E78068FFF77FFA0448AC78401E35
:10CAA0000078A042DBD0F8BD64080200BF2000205F
:10CAB0000022002802D00A70002070470548006953
:10CAC000C2430548037801209840104000D001205F
:10CAD0000870F1E7000500506408020010B5042852
:10CAE00006D007280ED00A2801D103F0B3F810BDF4
:10CAF00007481321408876DF06E00028F7D0FFF7CB
:10CB000019F910BDFFF748FC0828F6D110BD000048
:10CB10009820002003460020002B0BD10A4B012A4D
:10CB200002D1012908D0002200290AD0012904D00D
:10CB3000022904D0072070470D221A7070475A70DE
:10CB400070479A7070470000BF20002010B5054A5A
:10CB50000146127B0020D20702D0084600F052F8AE
:10CB600010BD0000BC20002070B50E461F490546D0
:10CB70008E60CD6000204A61A9071DD5002405E024
:10CB8000012211462046FFF7C5FF641C21460143E0
:10CB9000F6D0002810D1720801211548FFF782F85D
:10CBA000002809D1FFF76CF8002805D11048114A78
:10CBB00000210838FFF754F9E90706D021220E4971
:10CBC00012048A600023CB608A6100280DD10848D6
:10CBD0000A4A00211038FFF743F9002805D104481C
:10CBE000074A01210C38FFF73BF970BDBC2000203B
:10CBF0006808020021CE01000005005029E501006F
:10CC000069BC0100FEB5764D0122296912048A43F0
:10CC10000191A96806468B0000910020C9180746BB
:10CC2000704C3300FEF700FD180D1515364554679E
:10CC30007D7F9188919A9D9D9D9D9DC6CBD1D99ACE
:10CC40009A142121019A09049143A160E7602F7091
:10CC5000FEBDA260E76060682121090448408002AF
:10CC6000614808D5A060E760022E01D15F4809E065
:10CC70007D20400106E0E060A760022E01D1642023
:10CC800000E0C8202E706421FEF770FA009941433D
:10CC9000002241E0A260E760606821210904484069
:10CCA0008002514802D5A060E760DFE7E060A7603E
:10CCB000E5E7A260E760606821210904484080023E
:10CCC000494802D5A060E760D2E7E060A760D8E7F6
:10CCD000A260E76060682121090448408002424860
:10CCE00002D5A060E76001E0E060A7602E700098C8
:10CCF0004100002210E0A260E76060682121090481
:10CD000048408002384802D5A060E76001E0E0605A
:10CD1000A7602E700099002235480068FFF7FEF8E2
:10CD2000FEBDA26049E061680120000402468A431A
:10CD3000A2600140E160EDE76068012109040A4654
:10CD40008243A2600840E060E4E7626801200004DA
:10CD500003469343A3600240E260CAE7212109042D
:10CD600037E023484068FFF717F911218A1B01D0EB
:10CD7000002807D02122296912041140A160E76030
:10CD80002F61FEBD012109042961012A0BD9C820A8
:10CD900050436421FEF7EAF9A96800224143144890
:10CDA0004068FFF7BBF82122296912041140E160B5
:10CDB000A760FEBD21210904A160E7600BE001210D
:10CDC0000904A160E760490103E00749A160E76049
:10CDD0004911E160A7602E70FEBDA760E760BDE766
:10CDE000BC2000200005005000002000DC050000F1
:10CDF00058080200084909688A0008495218116851
:10CE0000C007C00F00D0032003231B049943000474
:10CE100008431060002070476408020000070050BB
:10CE200010B500780221FFF707FE10BD38B50446A3
:10CE30000C4A0D490320FFF797FE002801D0FEF7AA
:10CE400079FF69460020FFF787FD002801D0FEF733
:10CE500071FF68460078022802D00020207038BD9B
:10CE60000120FBE7DDCA0100CD0C00000022D24307
:10CE7000830004490428CA5002D3081820300277DE
:10CE800070470000A4290020F0B50025ED43002ADA
:10CE900002D00023042601E0042308260B4C04E002
:10CEA0009F00E7597F1C04D05B1CB342F8D328468F
:10CEB000F0BD26185DB2203635709E00A151002AC3
:10CEC000F5D1E11820310877F1E70000A42900200E
:10CED000024909182020085670470000A4290020A4
:10CEE00010B5044601F0CEF9A04202D2014901205A
:10CEF000086010BD00050040F8B53E4814220178D6
:10CF000051430C18E0680C2148433A492769CC3159
:10CF10004018058941890091241D466802F07EFB76
:10CF200001463846FEF722F9002932D00020009948
:10CF3000A2884D436188AE198918CD1900222E4967
:10CF400000280A6109D002F069FB6188884222D07A
:10CF5000B54202D1A08800281DD0A06802281AD0AE
:10CF600002F05CFBA188CA1901461046FEF7FEF8E4
:10CF7000214C8808E06002F051FB01462846FEF78C
:10CF8000F5F8002911D00020B5422FD000280ED08E
:10CF90002CE00120CBE702F041FB01463846FEF7CA
:10CFA000E5F815494861032021E00120ECE7ADB226
:10CFB000B7B202F033FB01463846FEF7D7F8064613
:10CFC00002F02CFB01462846FEF7D0F8864201D13C
:10CFD000781B09E002F022FB064602F01FFB014627
:10CFE0002846FEF7C3F8701A80082061022002F07C
:10CFF00051FEF8BD082A00203021002010B5074856
:10D0000014220178514308180079042802D000F056
:10D0100059F810BD012002F03DFE10BD082A002085
:10D0200010B50B481422017851430818094AC188E9
:10D0300011620079012806D0032801D0042801D10B
:10D04000FFF75AFF10BD012002F024FE10BD0000C2
:10D05000082A00203021002014225043054A0021D4
:10D0600080180171C18001220161C26041610181AA
:10D0700070470000082A0020F8B5104C069E65781D
:10D080000A2D19D027787D190A2D00D30A3D1427BF
:10D090007D432D1928716A6103C92961E860EB801D
:10D0A0002E816078401C607005480078002801D10E
:10D0B000FFF7B6FF0020F8BD0420F8BD082A0020C5
:10D0C0003021002010B50D4C14212078484301195F
:10D0D0000020091DFEF79EFE2078FFF7BDFF607857
:10D0E000401E60702078401CC0B220700A2801D118
:10D0F00000202070002002F0CDFD10BD082A002085
:10D10000F8B52348C16800293ED00E6821494C6813
:10D110000769C078E11B0D022D0AED1C002814D10F
:10D1200001201D4A000450601B4A403A50601B49D0
:10D13000400008601A4908601A49012008602F2041
:10D14000FDF7E8FF12490120C870B54200D235460C
:10D15000E81900020F4B000A403318600D4A51686D
:10D16000001B091B0902090A0002000AC91C8142AE
:10D1700009D9506818602F20FDF7CCFF012007491E
:10D18000400480390860F8BD02F014FCF8BD0000CE
:10D1900068210020001501404013014080E200E0BA
:10D1A00000E100E00010014010B504460C2001F041
:10D1B0004BFF0D2001F048FF0E2001F045FF0F202E
:10D1C00001F042FFE00702D00C2001F04DFFA00764
:10D1D00002D50D2001F048FF600702D50E2001F0B6
:10D1E00043FF200702D50F2001F03EFF10BD10B510
:10D1F00000F093F800F0F0FA00F07CF800F09BF8F3
:10D2000000F083F810BD00007CB50546022803D06D
:10D21000032D01D0072D3DD120498868C9680090B1
:10D22000019168460078810768464078890F400779
:10D23000C00E0843019989074C0E044301988003EE
:10D24000800F04D003210198090408400443002002
:10D2500001F0B2FB12494868FF221202104020433D
:10D260004860022D04D0032D04D0072D05D112E013
:10D27000042000E0082001F09FFB0A4901204860DB
:10D28000094801680902090A0207114301600749B8
:10D29000802008607CBD8020EDE700003C08020093
:10D2A000007500400073004004E400E000E100E08D
:10D2B00010B51A210A48FDF79CFF092209A1084868
:10D2C000FDF7A2FF00F0AAFE05210948FDF791FF36
:10D2D00005210748FEF73EFC0320FFF789F810BD43
:10D2E000502400204D4445582D4144560000000074
:10D2F000A420002010B50720FFF786FF0220FFF7CB
:10D3000083FF0320FFF780FF10BD10B51C2001F044
:10D310006FFE1D2001F06CFE10BD10B50021032032
:10D3200001F054FE0021042001F050FE00210520F0
:10D3300001F04CFE10BD10B50C2001F059FE0D207F
:10D3400001F056FE0E2001F053FE0F2001F050FEBA
:10D3500010BD0000F8B50646108814468446801DAE
:10D360000D46984201D90C20F8BD32880720062AC4
:10D37000FAD31927FF01184BBA4201D99A42F3D1C7
:10D3800071880629F0D3B94201D99942ECD19A4269
:10D3900003D0994201D08A42E6D80521604629543B
:10D3A00020881221401C80B2208029542088401CF3
:10D3B00080B220804119308803F0B0F821884018ED
:10D3C00080B220804119708803F0A8F821884018A5
:10D3D00020800020F8BD0000FFFF000010B5FEF720
:10D3E000A9FC10BD00B587B01C216846FDF701FF00
:10D3F0000521C90301910F21090400200291009029
:10D40000032269460A73C8810874064805900648D5
:10D4100006906846FFF7E2F8002801D0FEF78AFC84
:10D4200007B000BDFDF10100DDD30100F8B51648DD
:10D4300000F0F6FF144D00260C3D144C002807D0D8
:10D44000616900291CD001206A461070684616E008
:10D450002878002805D06169002911D06846067037
:10D460000DE0687800280DD0A16809480022006806
:10D47000FEF754FD002803D0A169002900D0884799
:10D480002E70F8BD6168F0E70821002040280020D8
:10D490007008020070B5094B04469E7A08200025EA
:10D4A0000E4207D00648844202D01889A04202D119
:10D4B0000020156070BD052070BD000054290020BB
:10D4C000FFFF00000C214843064910B50122401817
:10D4D0008272911E0181FF21C1720721FDF789FE31
:10D4E00010BD00005429002010B5134C207900070E
:10D4F0001FD46069401C6061E068002801D00420EE
:10D5000004E000F0BFFF002803D0022002F01CFD61
:10D5100010BD2069002809D06068C10701D0032030
:10D52000F4E70121084360600020EFE7FFF766FDA4
:10D5300010BD02F0FDFC10BD3021002010B50848E0
:10D5400041680A0708D48A0702D5012211434160C5
:10D55000022002F0F9FC10BD02F0EAFC10BD000050
:10D5600030210020F8B500260124154D23E069681C
:10D57000F0004718387821462A698140114218D0B6
:10D580008A432A6101F008FB3A782146EB68914012
:10D5900019400346934099420BD17978012901D073
:10D5A000012100E000217B684140002B01D01046A2
:10D5B0009847761CF6B228788642D8D3F8BD00008A
:10D5C00054210020FEB50E46044681786A46234861
:10D5D00001F096FF002827D160780C21204F4843A6
:10D5E000C019807A400620D4022E1ED0012E1ED0F3
:10D5F0001C4DA0781C21484319490023F8394118D3
:10D600001C226846A847002813D0022E0CD0207890
:10D610000C21484312490C314018807A124980008D
:10D620000A58214668469047FEBD104DE1E7104D6F
:10D63000DFE7022EF8D060780C214843C019817AC8
:10D64000BF221140817260781C214843044934395B
:10D6500041181C231A466846A847D8E72021002015
:10D6600054290020B5FE010084080200B5F801002D
:10D67000D9F7010070B50546114A124800241C2351
:10D6800063431B189B7EFF2B04D0641C072CF6D32E
:10D69000104670BD0A78022A09D01C226243101875
:10D6A000FD22827607221030FDF78AFD04E01C215E
:10D6B00061430818FE2181762C700022E8E7000003
:10D6C000438000005C280020F7B505250F4F064673
:10D6D0000024002E0AD01C206043C01907223146C6
:10D6E0001030FDF79EFD002807D00AE01C206043A3
:10D6F000C019018B0298814203D101980025046072
:10D7000002E0641C072CE4D32846FEBD5C28002000
:10D710007CB5054681B26A46074801F0F1FE040077
:10D7200008D15421684601F015FF040002D12846B3
:10D7300001F07AFE20467CBD2021002070B5134602
:10D740000C4605460A8909780748FDF75DFF2078F1
:10D75000142806DD152804D1042229460348FDF7C4
:10D760002FFD002070BD000024090200A020002031
:10D770001FB56946087301F057FF002801D0FEF776
:10D78000D9FA03A800F05AFA002801D0FEF7D2FA1D
:10D7900001A805210130FDF72CFD694649790120DA
:10D7A00001438122114030314A06520E69464A71C6
:10D7B00007228A711022CA710549009169460871D1
:10D7C000044800F04FFB002801D0FEF7B3FA1FBD5C
:10D7D0003DD70100992000203FB50F480021026984
:10D7E0001207D20F00920269D206D20F019200698D
:10D7F0000A4A8006C00F029008466B460124850045
:10D800005D59012D05D014541154401C0228F6DB3B
:10D810003FBD1154F8E7000000050050B82000207B
:10D82000F0B593B00546FF24002011940290F7480C
:10D83000007800284CD0F64F3868002848D001A85E
:10D8400000F0EEF9002801D0FEF774FA281D0590CB
:10D850002C2069460883FF20002688710E710396EC
:10D86000EB4C28880C3C10280ED0A88803AA022173
:10D87000FFF710FE002807D103980C214143091936
:10D88000CA7A69468A71487129462A880831132064
:10D890000091192A7ED00FDC102A1BD0112A53D0F8
:10D8A000132A78D0142A13D103980C214843001965
:10D8B000C07AFF2870D09FE0D6491A2A6DD01E2A60
:10D8C00063D0522A04D1B87A8000095801A8884749
:10D8D00013B0F0BDD04F03AA01213846FFF7DAFD9F
:10D8E0000028F5D103990C204843022200198272C6
:10D8F00011236A4613745171A98801810722009986
:10D90000FDF75EFCE87DC10707D04108BF4808303D
:10D91000405CFF2808D0119006E03A4611A9009813
:10D92000FFF7D2FE002832D103980C225043001991
:10D930001199C172827A08231A43827268468171F2
:10D9400001A8FEF7E5FF22E003980C2148430119E6
:10D95000887AFD2210408872010706D5C0090DD0D3
:10D96000002101A8FFF72EFE08E068468079FF2815
:10D9700004D001F059FDFF206946887103980C22FC
:10D9800050431021001981721220694608743246F2
:10D9900004A903E08BE043E011E0FCE001A8FEF7FE
:10D9A000D5F96846007C122892D103980C21414396
:10D9B0000919897A01298BD0FFF784FD88E72A8A23
:10D9C00011A90020FFF780FE00280ED103990C2238
:10D9D000514309191198C8728A7A08231A438A7226
:10D9E0006946887101A8FEF793FF03980C2148430C
:10D9F0000019C07AFF2809D003981C2148438449A4
:10DA00004039401811210290FEF7F0FA03981C21CA
:10DA1000484382494218A8880023029986DF57E7C5
:10DA20006946087403980C2148430119887A042236
:10DA300010438872CA7AFF2A0BD0402210438872A2
:10DA40001620694608740023A8881A4685217FDFBE
:10DA500021E011A8FFF70EFE00281FD00646002087
:10DA60000D9003990C224A431219D27A1C235A436F
:10DA70006A4B0F90D2180E921C2251431A46C432A0
:10DA80008918109009910A900B900C903A1DA88863
:10DA900009AB00217FDF002890D178E76946119813
:10DAA000887103990C2251430919C872D7E7787A13
:10DAB0000C214008400078720398FB22484300196B
:10DAC000817A6B461140817214221A742A7A002AD4
:10DAD00006D04906E1D4C07AFFF71AFE2E7A56E73F
:10DAE00006210098FEF782FA03981C214843484912
:10DAF000403940181C21FEF779FA687A4007CCD5E6
:10DB000068468079FF28C8D003990C230A465943F8
:10DB10008C4609198B7A08273B438B726B7B9B07DA
:10DB200008D51C2503466B433C4D5B199D7E6D0853
:10DB30006D009D76CB7AFF2BAFD06346E35C022B62
:10DB400015D01C225043354D072240191030FDF7E7
:10DB500037FB684680791C2148434019817EFD22AD
:10DB60001140817607211030FEF740FA0EE01C21AB
:10DB70004A432749403951184A8A1C2148432749BA
:10DB800040180283817E490849008176012101A85D
:10DB9000FFF718FDFBE6287A0209012A23D10007C6
:10DBA000000F01281FD103980C2242431219927AC8
:10DBB000120718D5182148431549243940180E2159
:10DBC0000830FDF716FB16206946087403980C21EF
:10DBD00048430119887A602210438872787A0221BA
:10DBE000084378720FE003980C2250430019827AA0
:10DBF00080231A43827215206A461074B87A800016
:10DC0000095801A888470026C1E60000102100201D
:10DC100060290020A4080200FFFF00005C2800200B
:10DC2000002806D0FF21017041708170C170002072
:10DC300070470148704700000E800000F0B585B0C5
:10DC4000040036D0294800250560457285722846B3
:10DC5000FFF738FC254818212438FDF7CAFA0026BA
:10DC6000FF27304601F0E0FB21488755761C072E40
:10DC7000F7D35421684681800721C1801D481C4983
:10DC800000900831684601F049FD00280FD1184E78
:10DC90000120083E3070207800280CD06946888822
:10DCA000C988484381B23046103001F053FC05B0BA
:10DCB000F0BD1148FBE7114F00240D48A1B202AAA4
:10DCC000083001F01DFC002809D11C206043C01958
:10DCD00000231C2202A901F0CDFC002801D03570E0
:10DCE000E5E7641C072CE8D3E1E700006029002089
:10DCF0001821002001DD01000E8000005C280020BA
:10DD0000FFB5554891B000681A9F1E4600286AD09A
:10DD1000542F68D86846FFF783FF002801D0FEF72C
:10DD200009F8002468460470047125460597069694
:10DD3000A9B20FAA494801F0E3FB002806D1082246
:10DD40000FA91198FDF76DFA002819D06D1C072D49
:10DD5000EED3684680780790FF2844D0129820259B
:10DD6000032810D03E481C21301AFDF7FFF9012787
:10DD7000072825D204A802901398002812D019E091
:10DD800068468570E5E7542F03D040206946087146
:10DD900001E0684605716846017903200143684641
:10DDA00001714FE00799384688402C49103949687D
:10DDB000084218D0079802F0B7FB6846057138E0B2
:10DDC00025481C214038301AFDF7D0F900280CD026
:10DDD000214D1821243D701BFDF7C8F900281AD0E9
:10DDE00040206946087115B0F0BD04A8029068464D
:10DDF0000571447018480B940C300C904C38079007
:10DE0000684680781C2148431549059540180890BC
:10DE100007A806900DE03021684601714470C77074
:10DE20000D480C38807A800703D428461821FDF766
:10DE3000E0F912986946022808790BD002210843BC
:10DE40006946087104A8029001A96846139AFDF773
:10DE50007DFFC8E73843F4E7602900202021002037
:10DE60005C28002070B5064618480D46007800284A
:10DE70000ED01749002E0ED0002D0CD02868002897
:10DE800009D0144C2168002907D011480A3870BD08
:10DE90000F48801F70BD084670BD20600522691DB7
:10DEA000201DFDF78DF92879A072207A0221400803
:10DEB00040000843FB2210402072E0790123184300
:10DEC00008431040E0710020307070BD1021002028
:10DED0000E8000006029002010B50E4900234A780A
:10DEE0008C78A24212D0521CD2B24A70022A00D1BF
:10DEF0004B704A78074B920018339A5802600869B1
:10DF000010180002000A0861012010BD0360002003
:10DF100010BD000068210020826883881A400368D1
:10DF20009A5C0A708168491C81607047C268838866
:10DF30001A4003689954C168491CC16070470000C9
:10DF400010B5002803D0112802D0FDF779FF10BDCD
:10DF50000248082241681143416010BD3021002071
:10DF600010B51C4C217820464068012906D00229B2
:10DF700029D0032912D1000717D513E0000711D4C7
:10DF800015481422017851430818C188A28B891AB8
:10DF90000904090CC18002D001F08EFF10BDFFF70B
:10DFA00091F810BD00F0EAFB10BD6069401C606193
:10DFB00000F068FA002803D0207801F06BFE10BD55
:10DFC000FFF71CF810BD60780449800008588047AE
:10DFD00010BD000030210020082A0020080902009E
:10DFE00010B528DFFFF7ACFF10BD10B529DFFFF734
:10DFF000A7FF10BD10B50446C0B2FEF767F8204673
:10E0000010BD0000002804D00349496D01600020C4
:10E010007047032070470000002B00200EB5112030
:10E020006946087208220DA102A87CDF002801D0F1
:10E03000FDF780FE002000901022694601900A80C2
:10E040003C224A808880FF209130C88068467ADF71
:10E05000002801D0FDF76EFE0EBD00004D4445586E
:10E060002D414456000000000EB51120694608728B
:10E070000F220DA102A87CDF002801D0FDF75AFE77
:10E08000002000901022694601900A803C224A80BC
:10E090008880FF209130C88068467ADF002801D050
:10E0A000FDF748FE0EBD000056656E757320312EDB
:10E0B00032207063613031000020704700207047CB
:10E0C00000207047F8B506464078182104464C43B6
:10E0D00024490C2250436118224A00254B6818320B
:10E0E0008018AE462F469C46002B0CD0827A1346F1
:10E0F000D20908D05A0606D40D461A4A614689B29A
:10E10000175908358E46174C008918343B4672461D
:10E110002946A9DF0B2819D0002800D01248012F6A
:10E1200013D170780C214843001900890F4AA7DFEA
:10E1300000280AD00E49884212D0082810D0891C25
:10E1400088420DD011280BD00020F8BD70780C212A
:10E15000484301230019008972462946A9DFE0E7F8
:10E160000148F8BD3C29002041800000FFFF00006D
:10E170000230000070B50D460146687818220C4C3C
:10E1800050430019382301F075FA06000DD1687864
:10E19000182148430019FDF729FF687818214843E2
:10E1A00000194168491C00D14160304670BD000033
:10E1B0003C290020F3B585B00D460E206946088243
:10E1C00068780C2103274843254E3B468019008977
:10E1D00004AA6946AADF00283ED16878182148437E
:10E1E000741A001969460A8A0830FDF71AF80028DF
:10E1F000687807D0182148430119496800290DD0D3
:10E20000184E0CE00C2141438919897A890723D4DF
:10E21000182148430019FCF7ECFF1DE0124E27506F
:10E220006846028A68781821484300194260687875
:10E230004843001969460830FCF7C2FF6878182186
:10E2400048430019FDF7D2FE6878182148430119A8
:10E25000382318220598B047002007B0F0BD000011
:10E2600054290020B5F80100D9F7010010B5FFF7D7
:10E2700029FF10BD10B5FFF77DFF10BD10B5FFF7EA
:10E2800099FF10BD014840687047000080200020C1
:10E2900010B50446FFF7A0FA0148005D10BD00006C
:10E2A000B820002008B500F081FC002801D0FDF75F
:10E2B00041FD0748694600680090182000F0B4FC52
:10E2C000002801D0FDF736FD0020FDF774FD08BDE4
:10E2D0003C080200F8B50746104E0125BD403068E5
:10E2E000FDF75AFE00280DD10D4C2069284207D1B8
:10E2F000384600F051FC0028E06804D0284303E0D1
:10E30000A8432061F8BDA843E060206900222843AB
:10E310002061A1683068FDF701FEF8BD1C0902000C
:10E320005421002070B51B4C207900072ED41A48C8
:10E330001422017851430D182E6901F06FF901463E
:10E34000E8882A89761E80188019FCF70FFF21695A
:10E350000025002909D06169814206D1E560606825
:10E3600001210843606000200AE000F08BF80028DB
:10E3700002D00220E56003E02069002803D00320DA
:10E3800001F0E2FD70BDFEF739FE70BD01F0D0FD79
:10E3900070BD000030210020082A0020F8B51C4C78
:10E3A0002078002833D02069002807D00026E068B4
:10E3B000002805D00025002E04D011E00126F6E744
:10E3C0000125F8E7684652DF052804D0002804D06C
:10E3D000FDF7B0FC04E0012602E0216900988847BF
:10E3E000002D10D1608869460880A06861DF05288B
:10E3F00004D0002804D0FDF79DFC04E0012502E0D4
:10E40000E168A0688847002EDCD0002DD3D0F8BD8D
:10E410008C210020014800787047000098200020DF
:10E42000418805480288914204D34088814201D83E
:10E430000120704700207047002100201048018C07
:10E44000C9B2012917D1818C090714D1018D0906A0
:10E450000A0F03D1828D1206120F0ED0090F012967
:10E4600003D1828D1206120F07D0032903D1808DAC
:10E470000006000F01D00020704701207047000007
:10E48000C00F00F070B50E481422017851430C18EB
:10E49000256901F0C3F80146E08822896D1E8018C5
:10E4A0004019FCF763FE07494A69824206D382425B
:10E4B00002D10869002801D0002070BD012070BD84
:10E4C000082A002030210020800701D0002070475A
:10E4D0000120704730B51588EC1C9C4201D90C20F6
:10E4E00030BD02244C5513881C255B1C9BB2138045
:10E4F000CD5413885B1C9BB21380012807D00228DF
:10E5000007D0032807D0042807D0072030BD0020FB
:10E5100004E0012002E0CC5401E00320C85410883C
:10E52000401C1080002030BD10B50448017BC90795
:10E5300002D00078FEF766FB10BD0000BC20002072
:10E54000F8B52C49C8680A690C780F79896886463D
:10E55000944600913EE00099E20055182A7836E092
:10E56000182353436968521CC918AB78D2B293423E
:10E5700000D100220B78022B02D0032B27D123E0FD
:10E580004E680346014603E0B14204D00B46C96918
:10E5900000291CD0F8E7002919D08B4208D1C069A6
:10E5A000002805D1144F0126BE600026B44601277D
:10E5B0000E68C969D961002909D00B689B190B60E5
:10E5C00005E00174C06900E000210028F9D16978F4
:10E5D0009142C5D12146641EE4B20029BBD1054950
:10E5E00062460A61C8600F71704501D00120F8BD14
:10E5F0000020F8BD6821002000100140F8B5044655
:10E6000031480026C168009107784EE02E48F90095
:10E6100080680D1843E0002C02D02046E4691FE01A
:10E620002878182141436A68401CC0B251182870EC
:10E63000AA78904200D12E700A784868012A30D119
:10E64000027C002A2DD18A684260CA6882600A6909
:10E65000C260496981611C490979002900D046607E
:10E66000194943680A699C46991A0902174B090A15
:10E67000994202D28268891807E06146511A09025C
:10E680008268090A8A4202D9511A016000E00660D4
:10E690004660012186600174C66101F0FDFC002C1A
:10E6A000B9D1287869788842BAD138467F1EFFB23E
:10E6B0000028ABD10448C1680098814201D00120F4
:10E6C000F8BD0020F8BD000068210020FFFF7F009A
:10E6D00000F030F813A0FCF797FF0120FDF76BFB6B
:10E6E0007D20C00000F078F90020FDF764FB00F009
:10E6F000B7FEFDF76BFB0020FFF7CAFD002800D036
:10E700000120FDF7FFFC002801D0FDF713FB30BF0F
:10E7100048DF002801D0FDF70DFB0120FEF7E0FBEC
:10E72000F5E700000D0A554152542053746172748C
:10E73000210D0A0008B500230F4A05211846FDF7F0
:10E74000A5FB002801D0FDF7F5FA01F033FEFFF735
:10E75000A9FD6846FEF76AFBFEF784F86846007874
:10E76000FFF706F8FFF780FC01F064FAFDF74CFABA
:10E77000FEF738FE08BD0000AC21002010B50448AB
:10E780000822416891434160007801F083FA10BD8E
:10E790003021002070B5144682880E460546208838
:10E7A000111D4118921C994201D8FE2A01D90C2052
:10E7B00070BD521C32542088FF21401C80B2208042
:10E7C00031542088401C80B220808119288801F0B3
:10E7D000A5FE2188401880B22080AA88002A09D08E
:10E7E000A968002908D08019FCF7EAFC2088A988CC
:10E7F00040182080002070BD072070BD10B580201B
:10E8000000F0CAF8FCF7A8FD04466421FCF7AEFC52
:10E81000064A643010702046FF38DC385170506072
:10E82000642801D96420506010BD000080200020C1
:10E8300070B520212A48FCF7DCFC042000F0ACF87D
:10E84000274C00252846FEF7AFFCFCF785FD800825
:10E8500060556D1C102DF5D3082000F09DF80025A3
:10E860002846FEF7A1FCFCF777FD611980086D1CB6
:10E870000874102DF4D31B484078012816D10125C7
:10E8800011E0062D09D00C2D07D00E2D05D0102D2E
:10E8900003D0122D01D0182D05D1605D0521800017
:10E8A000FCF764FC60556D1C202DEAD300207F210D
:10E8B000225C7F2A00D92154401C2028F8D3002054
:10E8C0000949034688600246C860E55C2818052DA2
:10E8D00000D9521C5B1C202BF7D3CA60886070BD26
:10E8E000C8230020B820002080200020F8B50F4663
:10E8F000017814460546012902D16878002806D01F
:10E900002088821C9A422DD8012902D006E00720D7
:10E91000F8BD69784118891C994223D8181A801EBD
:10E9200086B2684606802188B81C081869467DDFD3
:10E930000028EDD12878022805D169460988B1421E
:10E9400001D809210AE00821012805D16878B042E0
:10E9500002D86A46108001E0684606806846008852
:10E96000FE2801D90C20F8BD2288401CB85420880C
:10E97000401C80B22080395420886946401C208089
:10E980000988401820800020F8BD00207047002032
:10E99000704700207047000010B5064902024B681E
:10E9A000FF242402A3431A434A60002800D0012018
:10E9B000086010BD0075004010B5064902024B68A2
:10E9C000FF242402A3431A434A60002800D00120F8
:10E9D000086010BD0075004031B5054C04E0401ED4
:10E9E00000902046FCF786FB00980028F7D138BD40
:10E9F000E70300008207D30EFF229A408907090E21
:10EA000010B5994000280BDA03071B0F083B9C0840
:10EA10000C4BA400E318DC6994430C43DC6107E071
:10EA20008408094BA400E418236893430B43236034
:10EA3000C106C90E012088400449086004490860E5
:10EA400010BD000000ED00E000E400E080E200E026
:10EA500000E100E0F3B581B00F46019800F024FD1D
:10EA6000012400281E4E019817D0FEF731FA8019B4
:10EA70002030007F8009032802D0012806D007E05B
:10EA80001848006901998C40204201D1022100E020
:10EA90000321019800F0C0FAFEBD00F011FD00282E
:10EAA000FAD00198FEF714FA05468100C81D0E4AF7
:10EAB000F93089180A6980B222430A610B4940186B
:10EAC00000210160002FE7D00198FEF701FA8000D5
:10EAD00030580028E0D00648AC404460FEBD00003D
:10EAE000A42900200005005000650040006000409F
:10EAF00000630040FEB5044623480E46001920215D
:10EB000041560027C8171346401C01D0082738E09B
:10EB1000F27819462046FEF7B7F90546401C2FD07B
:10EB2000B078002807D01948A10009180868022207
:10EB30009043086007E000217378204600910A4660
:10EB4000019100F01FFAF078002810D01048AA00B8
:10EB50001018317802690F4B1A400261E206D20C9C
:10EB60008907890B0A4301690A43026109E00648E3
:10EB7000327840192030017F92011143017700E083
:10EB800004273846FEBD0000A429002000070050DD
:10EB900000650040FFE0FCFF03490969C140C80768
:10EBA000C00F00D0012070470005005070B5124D15
:10EBB0002879002801D0082070BD0F490020403975
:10EBC000421E0B182033401CC0B21A702028F8D304
:10EBD00000242046FEF74AF9641CE4B2082CF8D35E
:10EBE00003210620FFF706FF01200449C007486003
:10EBF00001202871002070BDE4290020006300403E
:10EC000002480079002800D001207047E429002044
:10EC1000012181400148C16070470000000500509B
:10EC200000B500F051F800BDFEB5044620480D4681
:10EC30000019002620308157491C01D0082633E0F6
:10EC4000A97800291DD0012200212046FEF71CF9D9
:10EC5000411C14D0830017482A7818186978036972
:10EC6000154F3B4003610369E706FF0C9207920BC7
:10EC7000C907C90A3B430A431343036104E004265E
:10EC800012E00121C94301706A780120A0400B49BC
:10EC9000012A0BD0C860002100910B46012201918E
:10ECA0002046114600F06EF93046FEBD8860F2E75E
:10ECB000A429002000650040FFE0ECFF00050050A3
:10ECC00000B5FFF7A5FF00BD01218140014881602B
:10ECD00070470000000500500121044A814050683F
:10ECE0000B46834393600840D06070470005005096
:10ECF000F3B52A4C0746E07E81B0002801D00820F9
:10ED0000FEBD002F00D1264F0126387831468140C4
:10ED100024488160386800F075F90021786800F0B7
:10ED20005EF9214DB8696862787D397D0843E866EF
:10ED300003CFE8606961387B083F01280FD10021CB
:10ED4000B86800F04CF9387B314681401548816045
:10ED5000F86800F057F9F968B868A9602861029866
:10ED600060603969216000280ED0FF230F481D33F1
:10ED7000397F0022C250FF234533C2500D4A0C4850
:10ED800050600220FFF736FE042028600020E07566
:10ED90002076A075E676A076FEBD0000EC29002066
:10EDA000D40802000005005000250040002000406B
:10EDB0008000020000230040F8B5104B81245E68FB
:10EDC0000022A4000E4D002E00D0AC60DF7D002F8D
:10EDD0000BD01A7E002A04D0002E00D06C601120C7
:10EDE000F8BD18610122197604E0D9750024D860B5
:10EDF0005C761C7600F012F8F8BD0000EC290020CB
:10EE00000023004010B5044CA07E002803D100F080
:10EE10006DFE0120A07610BDEC290020F8B5234D31
:10EE2000A87E104301D100F061FE6868204C0028E4
:10EE300005D081201F49800048600020F8BDFF20D8
:10EE4000453000212150FF212531204600F01EF9D8
:10EE50000546FF210931204600F018F90746FF2139
:10EE60004531204600F012F9064639463143294320
:10EE7000E9D02846304306D100F0BEFD0B48C17DE5
:10EE8000407E8142DFD800210848002DC17501D0A5
:10EE90000320F8BD002E01D00F20F8BD817E012097
:10EEA000002901D02060C8E76060C6E7EC29002097
:10EEB000002000400023004010B5034600F048F851
:10EEC000002801D0112010BD034A002091759360E5
:10EED000908200F003F810BDEC290020F8B5002660
:10EEE000194FFF251D357E510120B86001F034F91E
:10EEF000164C6168002910D022E0FF27013729460F
:10EF0000114800F0C3F8002802D1A08AB842F6D117
:10EF1000A08AB84201D001F01FF9A08AA17D8842E1
:10EF2000EBD3A18AC81FF9380CD0074F29463846C1
:10EF300000F0ACF80028F9D00120F8600020A0759E
:10EF40003046F8BD0F26F9E700200040EC290020EC
:10EF50000248807D002800D001207047EC29002065
:10EF600030B552000A439900039C0A432102049DD4
:10EF70000A4329040A43024980004018026030BD58
:10EF80000007005030B552000A439900039C0A4321
:10EF90002102049D0A4329040A43024980004018C3
:10EFA000026030BD0007005030B552000A4399009E
:10EFB000039C0A432102049D0A4329040A4302498F
:10EFC00080004018026030BD000700501CB50022D0
:10EFD0000B46009211460192FFF7C2FF1CBD1CB503
:10EFE00000220B46009211460192FFF7DDFF1CBD87
:10EFF0001CB5002100910B46012201911146FFF73B
:10F00000AFFF1CBD1CB5002100910B4601220191F0
:10F010001146FFF7C9FF1CBD8200064810180268A0
:10F0200003231B049A430260026809040A43026036
:10F030007047000000070050012181400148C16075
:10F040007047000000050050012181400148C16067
:10F050007047000000050050012181400148816097
:10F060007047000000050050012181400148816087
:10F07000704700000005005003494018006801284F
:10F0800000D0002070470000006000404058002879
:10F0900000D0012070470322120280184068084007
:10F0A00000D00120704710B50846114600F0B6F8B0
:10F0B00010BD00008AB210B501460648FDF7A8FB56
:10F0C0000446082803D0002801D0FCF733FE204670
:10F0D00010BD00006C24002010B50446014609A0B4
:10F0E000FCF792FA002C09D0032C06D10220FDF780
:10F0F0002DFD002801D0FCF71DFE10BD00F0AAFD7B
:10F1000010BD00006F6E5F6164765F657674203AB3
:10F110002030782578200A0070B50188054601293D
:10F1200002D91EA0FCF770FA2888254C102810D0B0
:10F1300011281BD0192829D0552809D1A8790028D1
:10F1400006D11321608876DF002801D0FCF7F2FD9C
:10F1500070BD0720FDF7FAFC002801D0FCF7EAFD9E
:10F16000A88860800120207016A00CE00020FDF728
:10F17000EDFC002801D0FCF7DDFD0020C0436080DD
:10F180000020207015A0FCF73FFA70BD1A4801213D
:10F19000002289030068FCF7C1FED5E76F6E5F624D
:10F1A0006C655F657674206865616465722E65764E
:10F1B000745F6964203D2030782578200A000000C3
:10F1C000982000205B4F5D202D20626C6520636FCE
:10F1D0006E6E6563746564210A0000005B585D20F3
:10F1E0002D20626C6520646973636F6E6E65637455
:10F1F0006564210A000000003408020010B50078A0
:10F20000002807D104483B21408876DF002801D040
:10F21000FCF790FD10BD00009820002010B50446BA
:10F220000078FE2818D16078002815D0012813D165
:10F23000A078800703D51D20FFF70EFF02E01D20F8
:10F24000FFF7FAFEA078C00703D01C20FFF704FFE9
:10F2500002E01C20FFF7F0FE0C2221463CA0FBF749
:10F26000E0FF00286CD00C2221463DA0FBF7D9FF1F
:10F27000002865D0052221463DA0FBF7D2FF0028DB
:10F280005ED0052221463CA0FBF7CBFF002857D0DB
:10F290000D2221463AA0FBF7C4FF002852D00D22D0
:10F2A00021463BA0FBF7BDFF00284BD0052221469D
:10F2B0003BA0FBF7B6FF002844D0052221463AA028
:10F2C000FBF7AFFF00283DD00D22214638A0FBF709
:10F2D000A8FF002838D00D22214639A0FBF7A1FF56
:10F2E000002831D00522214639A0FBF79AFF0028DB
:10F2F0002AD00522214638A0FBF793FF002823D00F
:10F300000E22214636A0FBF78CFF002814D00E22D7
:10F31000214637A0FBF785FF00280DD005222146A6
:10F3200037A0FBF77EFF002806D00522214636A035
:10F33000FBF777FF002802D11C20FFF77DFE10BDF0
:10F340001D2002E01D20F8E71C20FFF785FE10BD00
:10F350007475726E206F6E206C656674000000001C
:10F360007475726E206C656674206F6E000000000C
:10F37000703137203100000050313720310000005B
:10F380007475726E206F6666206C6566740000008E
:10F390007475726E206C656674206F66660000007E
:10F3A000703137203000000050313720300000002D
:10F3B0007475726E206F6E20726967687400000049
:10F3C0007475726E207269676874206F6E00000039
:10F3D00070313620310000005031362031000000FD
:10F3E0007475726E206F66662072696768740000BB
:10F3F0007475726E207269676874206F66660000AB
:10F4000070313620300000005031362030000000CE
:10F410000021425C002A01D001207047491C0629C6
:10F42000F7D300207047000070B505461C200B493B
:10F4300068434418204611300621FBF7DAFE2046C7
:10F440001021FBF7D6FEFF2121740020A176C043D6
:10F450002083284601F068F870BD00005C28002079
:10F4600010B50A4A01210A48FCF7FAFC002801D02D
:10F47000FCF760FC06480022001F06494068FCF7C4
:10F480004DFD002801D0FCF755FC10BD99F401009A
:10F49000400802006646000002484168491C41607D
:10F4A00070470000AC200020044908182021415674
:10F4B000042901DB0120704700207047A4290020A7
:10F4C0000449081820214156042901D2012070471F
:10F4D00000207047A429002007490979490701D471
:10F4E00008207047002804D00449497801600020B2
:10F4F00070470E207047000030210020082A0020AD
:10F5000030B5124B1B795B0701D4082030BD0028B1
:10F5100005D0002A03D00468002C10D101E00E2091
:10F5200030BD0B4B1D68002D09D04568188941433B
:10F5300069185D89454358682818884201D8072012
:10F5400030BD14600020516030BD0000302100202B
:10F55000D42A0020FEB5054625480E46007940070E
:10F5600001D40820FEBD002D03D02868002834D126
:10F5700001E00E20FEBD1F4C216800292DD06089BE
:10F5800021894843616841186868814225D9FEF79E
:10F590009BFF00280FD06868019029680C22514316
:10F5A0000F1979680091401A39890C46FBF7DEFD86
:10F5B000002912D101E01020FEBD21463046FBF7A4
:10F5C000D5FD002909D1002E07D078894443019840
:10F5D000811900980019814201D90720FEBD002041
:10F5E00002460090334629460320FDF745FDFEBD47
:10F5F00030210020D42A002010B507484469601C3F
:10F6000006D000F00BF801462046FBF7AFFD10BD19
:10F6100001200007406910BD001000100120000704
:10F62000006980B27047000070B500240F4825467D
:10F63000047044702846FDF70FFD6D1C0A2DF9D3A8
:10F640000B4D6C80FFF7D8FF861EFFF7E7FF4643A0
:10F650000648AE60CC306C610460048144812C703B
:10F66000AC610420EC616860002070BD082A0020B5
:10F6700030210020FFB5274881B000791F4616468B
:10F680000D46400702D4082005B0F0BD002D06D07D
:10F690000198002803D02868002815D101E00E2029
:10F6A000F2E71D4C206800280ED06189208962682D
:10F6B000414389186A68914206D9002E04D0B042AD
:10F6C00002D3F119814201D90720DDE70198FEF745
:10F6D000FBFE00281BD03846FEF7F6FE002816D0A9
:10F6E0006868FEF7F1FE002811D068683246C1193B
:10F6F0000198FBF765FD009628680C2148432458C3
:10F70000002202212846019BA0470020BCE71020D0
:10F71000BAE7000030210020D42A0020F8B52C4D93
:10F72000044628790E46400701D40820F8BD002C75
:10F7300020D0002E1ED0206800281BD0FFF76EFFBF
:10F740000146A088814213D3102811D3E0880028F5
:10F750000ED0FFF751FF471EFFF760FF4743E288D7
:10F76000A188A8684A431218974201D3890703D099
:10F770000720F8BD0E20F8BD6988012926D0316028
:10F780000C22144B51437060CA18506020685850C6
:10F79000A0881081E0885081FFF740FF0646FFF700
:10F7A0003DFFA188E288401E514340183146FBF7D7
:10F7B000F3FC0446FFF732FF0146A86861430818CE
:10F7C000A8606888401C68800020F8BD0420F8BD4F
:10F7D00030210020D42A0020F8B5044620481E46D7
:10F7E000007915460F46400701D40820F8BD002FC8
:10F7F00005D0002C03D02068002815D101E00E2090
:10F80000F8BD1848016800290ED042890189406876
:10F810004A4310186268904206D9002D04D0A942CC
:10F8200002D3A819884201D90720F8BD3846FEF74F
:10F830004BFE002811D03046FEF746FE00280CD0C3
:10F840006068FEF741FE002807D02B463A46214665
:10F8500001200096FDF710FCF8BD1020F8BD000057
:10F8600030210020D42A002010B511490246087822
:10F87000002811D004280FD0022A16D0032A0BD159
:10F880000A79120711D48A69521C8A61032A08D0A6
:10F89000022802D000F0FEF910BD487800F054FBB9
:10F8A00010BD0D20FCF7CCFA10BDFEF759FB10BDC2
:10F8B00030210020F8B5044620481E460079154640
:10F8C0000F46400701D40820F8BD002F05D0002CBA
:10F8D00003D02068002815D101E00E20F8BD18489B
:10F8E000016800290ED04289018940684A431018F6
:10F8F0006268904206D9002D04D0A94202D3A8190B
:10F90000884201D90720F8BD3846FEF7DDFD002802
:10F9100011D03046FEF7D8FD00280CD06068FEF705
:10F92000D3FD002807D02B463A46214604200096F6
:10F93000FDF7A2FBF8BD1020F8BD0000302100202B
:10F94000D42A002000B5044800F008F8024810301E
:10F9500000F004F800BD0000C823002090B001783A
:10F9600000914178019181780291C1780391017AE7
:10F970000491417A0591817A0691C17A07910179C2
:10F9800008914179099181790A91C1790B91017BA3
:10F990000C91417B0D91817B0E91C17B0F910021D8
:10F9A0006A468B00D35C4354491C1029F9DB10B024
:10F9B0007047000070B501240B49600408600B49D2
:10F9C00040108860094940398860094D6C602F20DB
:10F9D000FBF7A0FBAC60074D00242F202C61FBF748
:10F9E00099FBEC7070BD000080E100E04013014025
:10F9F000001001406821002030B50A48FF21C57D74
:10FA00000022094C0931094B002D625007D0996939
:10FA1000437EC268D154417E491C417630BD98690D
:10FA200030BD0000EC2900200020004000250040EF
:10FA300070B500240546601C90B00007000F08A9AF
:10FA4000103008940870601C0007000F10304870D8
:10FA50008878F9263040801C88701C2101A8FBF7AB
:10FA6000C8FB694608791021084369460871029469
:10FA700008A80494059407940690287808A988712A
:10FA800003206946888411200094087048708878A3
:10FA9000F7213040801C0840EF2108400126304308
:10FAA0006946887014210AA8FBF7A3FB09A80A90ED
:10FAB00068460B9069460E8614204C8688862B4635
:10FAC00068880C330AAA01A9A2DF10B070BD00003B
:10FAD0001FB501236A46137010720348019106C8CE
:10FAE000684690471FBD0000EC290020FF22054812
:10FAF000253200218150FF2209328150012101600D
:10FB0000704700000020004008B502490020009125
:10FB100008BD00008020002010B50121202805DA52
:10FB20001A4A8140114201D1194810BD8107C90EFE
:10FB3000002808DA0207120F083A9208154B9200C3
:10FB4000D218D26904E08208134B9200D2181268CE
:10FB5000CA401106890F042911D200290FD00229A9
:10FB60000DD00E494C68C306DB0E01229A40002CD2
:10FB700008D0400980000B5813430B5004E00448A0
:10FB8000401C10BD06480260002010BDFC06FFBCF2
:10FB90000120000000ED00E000E400E0A0210020D2
:10FBA00000E100E0FFB50746806A81B014460028F6
:10FBB0003DD0002538462030009033E00C20B96A53
:10FBC00068430E18B088801CFE2802D90C2005B0AE
:10FBD000F0BD22880299401C885420881622401CBF
:10FBE00080B2208002990A542088401C80B2208074
:10FBF00002994118308800F091FC2188401880B2A9
:10FC00002080B288002A0AD0B16800290FD0029B58
:10FC1000C018FBF7D5FA2088B188401820806D1CE9
:10FC20000098EDB2007BA842C8D80020CFE707209B
:10FC3000CDE7000008B50548009069460448FCF788
:10FC400087FD002801D0FCF775F808BDA7F001007A
:10FC50006C24002010B50020FCF778FF002801D0AC
:10FC6000FCF768F807A0FBF7CFFCFCF7DBFE0028E9
:10FC700001D0FCF75FF83CDF002801D0FCF75AF810
:10FC800010BD0000676F20746F20736C6565702E67
:10FC90002E2E0A0010B50F490028087009D001283F
:10FCA00011D0022812D0032802D14869FEF798F932
:10FCB00010BD00208861C861074840780028F7D04F
:10FCC000FDF7AEF910BD00F0F7F810BD00F056F8E2
:10FCD00010BD000030210020082A0020002803D099
:10FCE0000249C860002070470E2070478C21002018
:10FCF0001CB5034901910091694660DF1CBD0000FD
:10FD00008020002070B50E4605461446142110468A
:10FD1000FBF76FFA012000212080216121732672F8
:10FD20006572002D00D0A072002070BD10B5FBF7E9
:10FD3000F3FF10BD70B5002901D08C0701D007205A
:10FD400070BD074C0125A16062800649636010DF29
:10FD50000028F5D125701620FFF7DEFE70BD0000EB
:10FD60008C2100202DFD0100002803D002490861EC
:10FD7000002070470E2070478C210020F8B5164CEB
:10FD800014226068400840006060144801785143C4
:10FD90000E183769FFF742FC01463846FBF7E6F9D3
:10FDA00005466061FFF73AFC0146F0887F1EC019E6
:10FDB000FBF7DCF902228542606801D1104300E0C4
:10FDC00090436060E1681040084303D0002000F0D9
:10FDD000BBF8F8BD0220FAE730210020082A0020F5
:10FDE00010B502484069FEF7FBF810BD3021002035
:10FDF00010B5FFF701FC441EFFF710FC4443FFF76A
:10FE00000DFC04494A69521E5043CA682146FEF758
:10FE1000ECF810BD30210020F8B51048142201780C
:10FE200051430C182569FFF7F9FB0146E088228948
:10FE300080184019FBF79AF90F46FFF7DDFB461EC5
:10FE4000FFF7ECFB4643E0882289F1198018044A49
:10FE500040191269FEF7C9F8F8BD0000082A002011
:10FE60003021002070B5FFF7D9FB0546FFF7C4FB32
:10FE7000441EFFF7D3FB60432946FBF777F9FEF7F3
:10FE8000AFF870BD70B5FFF7C9FB8608FFF7C6FB7A
:10FE90000749496948430446FFF7AEFB451EFFF793
:10FEA000BDFB684332462146FEF79FF870BD000057
:10FEB000302100200020704770B5144814220178CA
:10FEC00051430C18241DFFF7A9FB6188104E88428E
:10FED00011D2FFF7A3FB61880D1AFFF79FFB820881
:10FEE000A188E0684018216940194919FEF77DF89A
:10FEF000FFF794FB07E0A288E06880188A08216970
:10FF0000FEF773F86088F06170BD0000082A0020D9
:10FF10003021002010B505480079000703D40120E6
:10FF200000F012F810BD00F003F810BD30210020E1
:10FF300010B504480822416891434160407800F0C0
:10FF400003F810BD302100200249487002498000AA
:10FF50000858004730210020F408020010B504467C
:10FF6000FFF782FC2046FCF7F7F910BD10B50548F5
:10FF70000079000702D4FDF741F810BDFFF7D8FF64
:10FF800010BD000030210020014901208870704719
:10FF90008020002010B50020FEF77AF9084C0028D8
:10FFA00006D0606900F015FC6069401C606110BDFE
:10FFB000FEF730FA0028F7D0606900F013FCF3E791
:10FFC0008020002010B50C4A01210C48FBF748FFA7
:10FFD000002801D0FBF7AEFE0020FEF759F90028FB
:10FFE00009D10648064A0121001DFBF739FF002808
:10FFF00001D0FBF79FFE10BD95FF01002C08020009
:020000040002F8
:1000000089FF0100FEB51F4C00252769E0680290BA
:100010006846FDF761FF0190FEF792FA06460198E7
:10002000002822D000230098E16817E00E680A46F5
:10003000864202D9301A086012E0801BF3180026AD
:100040001660D668D169B446002E07D0FE18360275
:10005000360A566066469660D56115460029E5D198
:100060002846E160FEF7CAFA06E02846FEF7C6FA1F
:10007000002801D1002E02D00298FDF741F800209F
:100080002071FEBD682100200120024900050860A2
:100090007047000000E200E010B50E4BD96800295F
:1000A00006D002680C68A24204D8A21A0A60C16194
:1000B000D86010BD0B4604E00B46C969121B00292D
:1000C00004D00C689442F7D3A41A0C600260C1619A
:1000D000D86110BD68210020F8B51D4DEC68002CDA
:1000E00034D01C48002740682969401A0602360AA5
:1000F0002068B04218D8361AC7192246107CE46925
:1001000000280FD0002010746B69002B07D0916974
:1001100050699847002805D0FBF70CFE02E05169B2
:1001200090698847002CE3D16978A878814206D18C
:10013000401CC0B2A870022801D10020A870044958
:100140000006800D18310F50FFF79EFFF8BD00002C
:100150006821002000150140FF2107481D310022C1
:1001600042500648828A8168895C828A521C828257
:100170000348C1617047000000200040EC290020C6
:100180000025004070B58EB005461C216846FBF77F
:1001900030F8694608780C21084369460870002445
:1001A00001940394049405940694287808A988700F
:1001B000022069460884601C0007000F1030079475
:1001C000087711204877887FF9210840F721801CA3
:1001D0000840EF2108400126304369468877142102
:1001E00009A8FBF706F808A8099007A80A9069462D
:1001F0008E851420CC85088668882B1D09AAA2DF6D
:100200000EB070BD1FB500216A461170107204480F
:1002100082680192817506C8684690471FBD00003C
:10022000EC29002070B501780026224C002904D06A
:1002300001292ED0022932D126E01F4D207828181E
:10024000FBF7DAFE2078401CC2B222706078401CB6
:100250006070A8182038C07F0A2801D0142A1ED345
:1002600015491648FCF7D4FA082803D0002801D015
:10027000FBF760FD207828182038C07F0A2801D1BC
:100280000120A07026700AE04068FBF753FD0CA027
:1002900003E04068FBF74EFD0EA0FBF7B5F9A07830
:1002A000002805D0617810A0FBF7AEF96670A67043
:1002B00070BD0000AC200020A82400206C24002089
:1002C0005B6572726F725D626C6520636F6D6D0A43
:1002D000000000005B6572726F725D756172742060
:1002E0006669666F0A00000073656E642076696156
:1002F00020626C65206F6B21202873697A653D252B
:1003000064290A007CB50178284D01290AD0022908
:100310002FD000292CD129462548FBF71DFD0028A8
:1003200033D036E04068017821481038FBF731FDC2
:100330001F4C103C002805D001216A461170019025
:10034000684608E0A068E168081A012805D1002085
:1003500069460870684669688847A068E168081AB5
:10036000A188884204D811480121401CFEF724FDD1
:100370007CBD02216A461170C06801900B480121C2
:10038000401CFEF719FD68460CE001210748FEF706
:1003900093FD07488168C0688842E9D10320694617
:1003A00008706846696888477CBD000028210020E5
:1003B0009429002000B50C4A87B007CA04AB07C3D4
:1003C000FF210131094800904018019103910290EA
:1003D0000323074A694604A8FBF728FE002801D03A
:1003E000FBF7A8FC07B000BD4C080200BC240020AD
:1003F00025020200F0B5454D012185B0490228468D
:10040000FEF749FE01270026414C002824D0FF2199
:1004100025312846FEF73AFE00281DD0FF20253062
:100420002E5081203B4980008860A07E002800D1AA
:100430006F600221684601703749086808600390C0
:10044000E17D68460172E0680190E675267606CC8B
:100450006846083C90472BE004212846FEF71BFE27
:10046000002825D0FF2109312846FEF70FFE00287D
:100470001ED0FFF7C1FAE07D617E884218D1207E50
:10048000002808D0627EE168E0752069E060267689
:10049000667610460AE0A07E002800D16F608120B9
:1004A0001C4980008860E675607EE168FFF710FBFC
:1004B000FF211D312846FEF7E9FD00280DD0A18A55
:1004C000A07D814202D2FFF747FE06E0FF211D31E9
:1004D0006E50002801D0FFF795FEFF2145312846D8
:1004E000FEF7D4FD00280ED0FF2045302E50A07E10
:1004F000002800D02F60E07D002804D0E675607EE3
:10050000E168FFF7E5FA05B0F0BD0000002000400B
:10051000EC29002000230040802400400870000ADD
:100520004870022070470000012181400248426863
:100530008A434260704700001021002038B51549F9
:10054000154A488890420FD04A78144C521CD2B2B7
:100550004A70237B934208D3091D75DF002803D01E
:10056000A169002900D0884738BD00254D70217C45
:10057000002907D03B2176DF002803D0A16900299C
:1005800000D0884761690029EED068460570884729
:1005900038BD0000FC200020FFFF000040280020A4
:1005A000EFF30580C005C00D1AD0103840B2002806
:1005B00008DA0107090F083989080C4A89008918E7
:1005C000C96904E081080A4A890089180968800716
:1005D000C00EC1400806800F012803D0032803D0B5
:1005E00002207047002070470120704700ED00E0B6
:1005F00000E400E042788378521CD2B2934200D1EA
:1006000000220378934201D1002070470A704168AC
:1006100040781822504308187047FFB583B016463B
:100620000C9D0D9C1F46022200950194039800F03A
:100630000CF8002807D13B46102231460095019462
:10064000039800F002F807B0F0BDFFB583B007468D
:1006500000200C9C8646268805463AE07868A9006A
:1006600042181188684681805188C18000226946FD
:1006700001A865DF002839D16846017805988142D4
:1006800026D17046002801D0002200E002222088F6
:10069000891842180D998A4227D8714600290AD133
:1006A000401C80B22080069A049911542088401C76
:1006B000208001208646218806980A18694601A8EC
:1006C00065DF002812D1694620880978401820800B
:1006D0006D1C3888A842C1DC704600280AD02088EA
:1006E000801B401E80B2FF2802D90C2007B0F0BD4D
:1006F000069988550020F9E770B505210A48FAF7F0
:1007000078FD094C0A20094D20706421A868FAF789
:100710002DFD6070A170287BE07028792071052183
:100720002046FBF717FA70BDA4200020802000208F
:1007300070B51D4D04461421681AFAF75AFD002CB5
:1007400000D01035194B1A495A781046204304D06E
:10075000002A04D0012A06D009E04D2008E0012C2F
:1007600005D1532004E0002C19D0012C19D05820B9
:10077000087000202C5C0E18401C74701028F9DBE7
:100780000C489201007948741878C00110439A7897
:1007900052011043C874064800F00EF870BD4C209A
:1007A000E6E75220E4E70000C8230020B82000203C
:1007B000B42300208020002010B51421FEF77AFC1D
:1007C00010BD0179002902D1007B002800D0012052
:1007D000704710B5FEF712F8FEF72AF8FFF78CFF06
:1007E00010BD000010B50F48847800218170002CE6
:1007F00002D00120FBF7DFFAFEF700F8FEF718F849
:1008000009484078012801D1FFF79CF80020FFF744
:100810008FFF0120FFF78CFF002C02D00020FBF798
:10082000CAFA10BD80200020B820002074230020C8
:1008300094230020E82300200010040000010000A1
:100840008824002002020000000000000B09080AB2
:100850000000000000E0D701BC260020DC260020BC
:10086000FC260020110000001100030039CA01001D
:10087000202800209ECADC240EE5A9E093F3A3B54E
:100880000000406E93E90100B5E10100C1E0010004
:100890007DE201008FE9010075E10100BDE001008A
:1008A00075E201008BE90100C5E00100B9E001003B
:1008B0006DE20100090000000B0000000A000000CA
:1008C00008000000000000000000000000E0D70168
:1008D00003000000090000000B0000000A000000F7
:1008E00008000000000000000000000000E0D70148
:1008F0000300000065FE010085FE0100E1FD01002E
:1009000019FE0100F1FD010015FF01003DD50100B8
:10091000E9D401006DFF010025E30100E02A002079
:10092000030000006465766963655F6D616E6167F1
:1009300065725F6576745F68616E646C6572206570
:1009400076206964203D20307825782C20706172F3
:100950006C656E3D25642C20657620726573756C20
:1009600074203D202564200A000000008C0902004C
:10097000802000202C01000002B30100A009020029
:10098000AC210020AC11000052B6010051021664E7
:100990000646FFFF01000203C4FFFF1424F4000019
:040000050001B0C185
:00000001FF
